{
	"contracts/RepublicCredit.sol": {
		"hadcoin_ico": {
			"abi": [
				{
					"constant": false,
					"inputs": [
						{
							"internalType": "address",
							"name": "investor",
							"type": "address"
						},
						{
							"internalType": "uint256",
							"name": "usd_invested",
							"type": "uint256"
						}
					],
					"name": "buy_hadcoins",
					"outputs": [],
					"payable": false,
					"stateMutability": "nonpayable",
					"type": "function"
				},
				{
					"constant": true,
					"inputs": [
						{
							"internalType": "address",
							"name": "investor",
							"type": "address"
						}
					],
					"name": "equity_in_hadcoins",
					"outputs": [
						{
							"internalType": "uint256",
							"name": "",
							"type": "uint256"
						}
					],
					"payable": false,
					"stateMutability": "view",
					"type": "function"
				},
				{
					"constant": true,
					"inputs": [
						{
							"internalType": "address",
							"name": "investor",
							"type": "address"
						}
					],
					"name": "equity_in_usd",
					"outputs": [
						{
							"internalType": "uint256",
							"name": "",
							"type": "uint256"
						}
					],
					"payable": false,
					"stateMutability": "view",
					"type": "function"
				},
				{
					"constant": true,
					"inputs": [],
					"name": "max_hadcoins",
					"outputs": [
						{
							"internalType": "uint256",
							"name": "",
							"type": "uint256"
						}
					],
					"payable": false,
					"stateMutability": "view",
					"type": "function"
				},
				{
					"constant": false,
					"inputs": [
						{
							"internalType": "address",
							"name": "investor",
							"type": "address"
						},
						{
							"internalType": "uint256",
							"name": "hadcoins_sold",
							"type": "uint256"
						}
					],
					"name": "sell_hadcoins",
					"outputs": [],
					"payable": false,
					"stateMutability": "nonpayable",
					"type": "function"
				},
				{
					"constant": true,
					"inputs": [],
					"name": "total_hadcoins_bought",
					"outputs": [
						{
							"internalType": "uint256",
							"name": "",
							"type": "uint256"
						}
					],
					"payable": false,
					"stateMutability": "view",
					"type": "function"
				},
				{
					"constant": true,
					"inputs": [],
					"name": "usd_to_hadcoins",
					"outputs": [
						{
							"internalType": "uint256",
							"name": "",
							"type": "uint256"
						}
					],
					"payable": false,
					"stateMutability": "view",
					"type": "function"
				}
			],
			"devdoc": {
				"methods": {}
			},
			"evm": {
				"assembly": "    /* \"contracts/RepublicCredit.sol\":29:1858  contract hadcoin_ico {\r... */\n  mstore(0x40, 0x80)\n    /* \"contracts/RepublicCredit.sol\":159:166  1000000 */\n  0x0f4240\n    /* \"contracts/RepublicCredit.sol\":132:166  uint public max_hadcoins = 1000000 */\n  0x00\n  sstore\n    /* \"contracts/RepublicCredit.sol\":261:265  1000 */\n  0x03e8\n    /* \"contracts/RepublicCredit.sol\":231:265  uint public usd_to_hadcoins = 1000 */\n  0x01\n  sstore\n    /* \"contracts/RepublicCredit.sol\":401:402  0 */\n  0x00\n    /* \"contracts/RepublicCredit.sol\":365:402  uint public total_hadcoins_bought = 0 */\n  0x02\n  sstore\n    /* \"contracts/RepublicCredit.sol\":29:1858  contract hadcoin_ico {\r... */\n  callvalue\n    /* \"--CODEGEN--\":8:17   */\n  dup1\n    /* \"--CODEGEN--\":5:7   */\n  iszero\n  tag_1\n  jumpi\n    /* \"--CODEGEN--\":30:31   */\n  0x00\n    /* \"--CODEGEN--\":27:28   */\n  dup1\n    /* \"--CODEGEN--\":20:32   */\n  revert\n    /* \"--CODEGEN--\":5:7   */\ntag_1:\n    /* \"contracts/RepublicCredit.sol\":29:1858  contract hadcoin_ico {\r... */\n  pop\n  dataSize(sub_0)\n  dup1\n  dataOffset(sub_0)\n  0x00\n  codecopy\n  0x00\n  return\nstop\n\nsub_0: assembly {\n        /* \"contracts/RepublicCredit.sol\":29:1858  contract hadcoin_ico {\r... */\n      mstore(0x40, 0x80)\n      callvalue\n        /* \"--CODEGEN--\":8:17   */\n      dup1\n        /* \"--CODEGEN--\":5:7   */\n      iszero\n      tag_1\n      jumpi\n        /* \"--CODEGEN--\":30:31   */\n      0x00\n        /* \"--CODEGEN--\":27:28   */\n      dup1\n        /* \"--CODEGEN--\":20:32   */\n      revert\n        /* \"--CODEGEN--\":5:7   */\n    tag_1:\n        /* \"contracts/RepublicCredit.sol\":29:1858  contract hadcoin_ico {\r... */\n      pop\n      jumpi(tag_2, lt(calldatasize, 0x04))\n      shr(0xe0, calldataload(0x00))\n      dup1\n      0x93e2e226\n      gt\n      tag_10\n      jumpi\n      dup1\n      0x93e2e226\n      eq\n      tag_6\n      jumpi\n      dup1\n      0xd2d35f82\n      eq\n      tag_7\n      jumpi\n      dup1\n      0xdf7fedf7\n      eq\n      tag_8\n      jumpi\n      dup1\n      0xe9052574\n      eq\n      tag_9\n      jumpi\n      jump(tag_2)\n    tag_10:\n      dup1\n      0x10c51c1b\n      eq\n      tag_3\n      jumpi\n      dup1\n      0x7336971e\n      eq\n      tag_4\n      jumpi\n      dup1\n      0x92088770\n      eq\n      tag_5\n      jumpi\n    tag_2:\n      0x00\n      dup1\n      revert\n        /* \"contracts/RepublicCredit.sol\":1061:1176  function equity_in_usd(address investor) external view returns (uint){\r... */\n    tag_3:\n      tag_11\n      0x04\n      dup1\n      calldatasize\n      sub\n        /* \"--CODEGEN--\":13:15   */\n      0x20\n        /* \"--CODEGEN--\":8:11   */\n      dup2\n        /* \"--CODEGEN--\":5:16   */\n      lt\n        /* \"--CODEGEN--\":2:4   */\n      iszero\n      tag_12\n      jumpi\n        /* \"--CODEGEN--\":29:30   */\n      0x00\n        /* \"--CODEGEN--\":26:27   */\n      dup1\n        /* \"--CODEGEN--\":19:31   */\n      revert\n        /* \"--CODEGEN--\":2:4   */\n    tag_12:\n        /* \"contracts/RepublicCredit.sol\":1061:1176  function equity_in_usd(address investor) external view returns (uint){\r... */\n      dup2\n      add\n      swap1\n      dup1\n      dup1\n      calldataload\n      0xffffffffffffffffffffffffffffffffffffffff\n      and\n      swap1\n      0x20\n      add\n      swap1\n      swap3\n      swap2\n      swap1\n      pop\n      pop\n      pop\n      tag_13\n      jump\t// in\n    tag_11:\n      mload(0x40)\n      dup1\n      dup3\n      dup2\n      mstore\n      0x20\n      add\n      swap2\n      pop\n      pop\n      mload(0x40)\n      dup1\n      swap2\n      sub\n      swap1\n      return\n        /* \"contracts/RepublicCredit.sol\":365:402  uint public total_hadcoins_bought = 0 */\n    tag_4:\n      tag_14\n      tag_15\n      jump\t// in\n    tag_14:\n      mload(0x40)\n      dup1\n      dup3\n      dup2\n      mstore\n      0x20\n      add\n      swap2\n      pop\n      pop\n      mload(0x40)\n      dup1\n      swap2\n      sub\n      swap1\n      return\n        /* \"contracts/RepublicCredit.sol\":1211:1564  function buy_hadcoins(address investor,uint usd_invested) external  can_buy_hadcoins(usd_invested){\r... */\n    tag_5:\n      tag_16\n      0x04\n      dup1\n      calldatasize\n      sub\n        /* \"--CODEGEN--\":13:15   */\n      0x40\n        /* \"--CODEGEN--\":8:11   */\n      dup2\n        /* \"--CODEGEN--\":5:16   */\n      lt\n        /* \"--CODEGEN--\":2:4   */\n      iszero\n      tag_17\n      jumpi\n        /* \"--CODEGEN--\":29:30   */\n      0x00\n        /* \"--CODEGEN--\":26:27   */\n      dup1\n        /* \"--CODEGEN--\":19:31   */\n      revert\n        /* \"--CODEGEN--\":2:4   */\n    tag_17:\n        /* \"contracts/RepublicCredit.sol\":1211:1564  function buy_hadcoins(address investor,uint usd_invested) external  can_buy_hadcoins(usd_invested){\r... */\n      dup2\n      add\n      swap1\n      dup1\n      dup1\n      calldataload\n      0xffffffffffffffffffffffffffffffffffffffff\n      and\n      swap1\n      0x20\n      add\n      swap1\n      swap3\n      swap2\n      swap1\n      dup1\n      calldataload\n      swap1\n      0x20\n      add\n      swap1\n      swap3\n      swap2\n      swap1\n      pop\n      pop\n      pop\n      tag_18\n      jump\t// in\n    tag_16:\n      stop\n        /* \"contracts/RepublicCredit.sol\":231:265  uint public usd_to_hadcoins = 1000 */\n    tag_6:\n      tag_19\n      tag_20\n      jump\t// in\n    tag_19:\n      mload(0x40)\n      dup1\n      dup3\n      dup2\n      mstore\n      0x20\n      add\n      swap2\n      pop\n      pop\n      mload(0x40)\n      dup1\n      swap2\n      sub\n      swap1\n      return\n        /* \"contracts/RepublicCredit.sol\":870:995  function equity_in_hadcoins(address investor) external view returns (uint){\r... */\n    tag_7:\n      tag_21\n      0x04\n      dup1\n      calldatasize\n      sub\n        /* \"--CODEGEN--\":13:15   */\n      0x20\n        /* \"--CODEGEN--\":8:11   */\n      dup2\n        /* \"--CODEGEN--\":5:16   */\n      lt\n        /* \"--CODEGEN--\":2:4   */\n      iszero\n      tag_22\n      jumpi\n        /* \"--CODEGEN--\":29:30   */\n      0x00\n        /* \"--CODEGEN--\":26:27   */\n      dup1\n        /* \"--CODEGEN--\":19:31   */\n      revert\n        /* \"--CODEGEN--\":2:4   */\n    tag_22:\n        /* \"contracts/RepublicCredit.sol\":870:995  function equity_in_hadcoins(address investor) external view returns (uint){\r... */\n      dup2\n      add\n      swap1\n      dup1\n      dup1\n      calldataload\n      0xffffffffffffffffffffffffffffffffffffffff\n      and\n      swap1\n      0x20\n      add\n      swap1\n      swap3\n      swap2\n      swap1\n      pop\n      pop\n      pop\n      tag_23\n      jump\t// in\n    tag_21:\n      mload(0x40)\n      dup1\n      dup3\n      dup2\n      mstore\n      0x20\n      add\n      swap2\n      pop\n      pop\n      mload(0x40)\n      dup1\n      swap2\n      sub\n      swap1\n      return\n        /* \"contracts/RepublicCredit.sol\":132:166  uint public max_hadcoins = 1000000 */\n    tag_8:\n      tag_24\n      tag_25\n      jump\t// in\n    tag_24:\n      mload(0x40)\n      dup1\n      dup3\n      dup2\n      mstore\n      0x20\n      add\n      swap2\n      pop\n      pop\n      mload(0x40)\n      dup1\n      swap2\n      sub\n      swap1\n      return\n        /* \"contracts/RepublicCredit.sol\":1600:1846  function sell_hadcoins(address investor,uint hadcoins_sold) external {\r... */\n    tag_9:\n      tag_26\n      0x04\n      dup1\n      calldatasize\n      sub\n        /* \"--CODEGEN--\":13:15   */\n      0x40\n        /* \"--CODEGEN--\":8:11   */\n      dup2\n        /* \"--CODEGEN--\":5:16   */\n      lt\n        /* \"--CODEGEN--\":2:4   */\n      iszero\n      tag_27\n      jumpi\n        /* \"--CODEGEN--\":29:30   */\n      0x00\n        /* \"--CODEGEN--\":26:27   */\n      dup1\n        /* \"--CODEGEN--\":19:31   */\n      revert\n        /* \"--CODEGEN--\":2:4   */\n    tag_27:\n        /* \"contracts/RepublicCredit.sol\":1600:1846  function sell_hadcoins(address investor,uint hadcoins_sold) external {\r... */\n      dup2\n      add\n      swap1\n      dup1\n      dup1\n      calldataload\n      0xffffffffffffffffffffffffffffffffffffffff\n      and\n      swap1\n      0x20\n      add\n      swap1\n      swap3\n      swap2\n      swap1\n      dup1\n      calldataload\n      swap1\n      0x20\n      add\n      swap1\n      swap3\n      swap2\n      swap1\n      pop\n      pop\n      pop\n      tag_28\n      jump\t// in\n    tag_26:\n      stop\n        /* \"contracts/RepublicCredit.sol\":1061:1176  function equity_in_usd(address investor) external view returns (uint){\r... */\n    tag_13:\n        /* \"contracts/RepublicCredit.sol\":1125:1129  uint */\n      0x00\n        /* \"contracts/RepublicCredit.sol\":1148:1158  equity_usd */\n      0x04\n        /* \"contracts/RepublicCredit.sol\":1148:1168  equity_usd[investor] */\n      0x00\n        /* \"contracts/RepublicCredit.sol\":1159:1167  investor */\n      dup4\n        /* \"contracts/RepublicCredit.sol\":1148:1168  equity_usd[investor] */\n      0xffffffffffffffffffffffffffffffffffffffff\n      and\n      0xffffffffffffffffffffffffffffffffffffffff\n      and\n      dup2\n      mstore\n      0x20\n      add\n      swap1\n      dup2\n      mstore\n      0x20\n      add\n      0x00\n      keccak256\n      sload\n        /* \"contracts/RepublicCredit.sol\":1141:1168  return equity_usd[investor] */\n      swap1\n      pop\n        /* \"contracts/RepublicCredit.sol\":1061:1176  function equity_in_usd(address investor) external view returns (uint){\r... */\n      swap2\n      swap1\n      pop\n      jump\t// out\n        /* \"contracts/RepublicCredit.sol\":365:402  uint public total_hadcoins_bought = 0 */\n    tag_15:\n      sload(0x02)\n      dup2\n      jump\t// out\n        /* \"contracts/RepublicCredit.sol\":1211:1564  function buy_hadcoins(address investor,uint usd_invested) external  can_buy_hadcoins(usd_invested){\r... */\n    tag_18:\n        /* \"contracts/RepublicCredit.sol\":1296:1308  usd_invested */\n      dup1\n        /* \"contracts/RepublicCredit.sol\":771:783  max_hadcoins */\n      sload(0x00)\n        /* \"contracts/RepublicCredit.sol\":746:767  total_hadcoins_bought */\n      sload(0x02)\n        /* \"contracts/RepublicCredit.sol\":728:743  usd_to_hadcoins */\n      sload(0x01)\n        /* \"contracts/RepublicCredit.sol\":712:724  usd_invested */\n      dup4\n        /* \"contracts/RepublicCredit.sol\":712:743  usd_invested  * usd_to_hadcoins */\n      mul\n        /* \"contracts/RepublicCredit.sol\":712:767  usd_invested  * usd_to_hadcoins + total_hadcoins_bought */\n      add\n        /* \"contracts/RepublicCredit.sol\":712:783  usd_invested  * usd_to_hadcoins + total_hadcoins_bought <= max_hadcoins */\n      gt\n      iszero\n        /* \"contracts/RepublicCredit.sol\":704:785  require(usd_invested  * usd_to_hadcoins + total_hadcoins_bought <= max_hadcoins ) */\n      tag_31\n      jumpi\n      0x00\n      dup1\n      revert\n    tag_31:\n        /* \"contracts/RepublicCredit.sol\":1320:1341  uint  hadcoins_bought */\n      0x00\n        /* \"contracts/RepublicCredit.sol\":1358:1373  usd_to_hadcoins */\n      sload(0x01)\n        /* \"contracts/RepublicCredit.sol\":1344:1356  usd_invested */\n      dup4\n        /* \"contracts/RepublicCredit.sol\":1344:1373  usd_invested *usd_to_hadcoins */\n      mul\n        /* \"contracts/RepublicCredit.sol\":1320:1373  uint  hadcoins_bought = usd_invested *usd_to_hadcoins */\n      swap1\n      pop\n        /* \"contracts/RepublicCredit.sol\":1413:1428  hadcoins_bought */\n      dup1\n        /* \"contracts/RepublicCredit.sol\":1384:1399  equity_hadcoins */\n      0x03\n        /* \"contracts/RepublicCredit.sol\":1384:1409  equity_hadcoins[investor] */\n      0x00\n        /* \"contracts/RepublicCredit.sol\":1400:1408  investor */\n      dup7\n        /* \"contracts/RepublicCredit.sol\":1384:1409  equity_hadcoins[investor] */\n      0xffffffffffffffffffffffffffffffffffffffff\n      and\n      0xffffffffffffffffffffffffffffffffffffffff\n      and\n      dup2\n      mstore\n      0x20\n      add\n      swap1\n      dup2\n      mstore\n      0x20\n      add\n      0x00\n      keccak256\n      0x00\n        /* \"contracts/RepublicCredit.sol\":1384:1428  equity_hadcoins[investor] += hadcoins_bought */\n      dup3\n      dup3\n      sload\n      add\n      swap3\n      pop\n      pop\n      dup2\n      swap1\n      sstore\n      pop\n        /* \"contracts/RepublicCredit.sol\":1490:1505  usd_to_hadcoins */\n      sload(0x01)\n        /* \"contracts/RepublicCredit.sol\":1462:1477  equity_hadcoins */\n      0x03\n        /* \"contracts/RepublicCredit.sol\":1462:1487  equity_hadcoins[investor] */\n      0x00\n        /* \"contracts/RepublicCredit.sol\":1478:1486  investor */\n      dup7\n        /* \"contracts/RepublicCredit.sol\":1462:1487  equity_hadcoins[investor] */\n      0xffffffffffffffffffffffffffffffffffffffff\n      and\n      0xffffffffffffffffffffffffffffffffffffffff\n      and\n      dup2\n      mstore\n      0x20\n      add\n      swap1\n      dup2\n      mstore\n      0x20\n      add\n      0x00\n      keccak256\n      sload\n        /* \"contracts/RepublicCredit.sol\":1462:1505  equity_hadcoins[investor] / usd_to_hadcoins */\n      dup2\n      tag_33\n      jumpi\n      invalid\n    tag_33:\n      div\n        /* \"contracts/RepublicCredit.sol\":1439:1449  equity_usd */\n      0x04\n        /* \"contracts/RepublicCredit.sol\":1439:1459  equity_usd[investor] */\n      0x00\n        /* \"contracts/RepublicCredit.sol\":1450:1458  investor */\n      dup7\n        /* \"contracts/RepublicCredit.sol\":1439:1459  equity_usd[investor] */\n      0xffffffffffffffffffffffffffffffffffffffff\n      and\n      0xffffffffffffffffffffffffffffffffffffffff\n      and\n      dup2\n      mstore\n      0x20\n      add\n      swap1\n      dup2\n      mstore\n      0x20\n      add\n      0x00\n      keccak256\n        /* \"contracts/RepublicCredit.sol\":1439:1505  equity_usd[investor] = equity_hadcoins[investor] / usd_to_hadcoins */\n      dup2\n      swap1\n      sstore\n      pop\n        /* \"contracts/RepublicCredit.sol\":1541:1556  hadcoins_bought */\n      dup1\n        /* \"contracts/RepublicCredit.sol\":1516:1537  total_hadcoins_bought */\n      0x02\n      0x00\n        /* \"contracts/RepublicCredit.sol\":1516:1556  total_hadcoins_bought += hadcoins_bought */\n      dup3\n      dup3\n      sload\n      add\n      swap3\n      pop\n      pop\n      dup2\n      swap1\n      sstore\n      pop\n        /* \"contracts/RepublicCredit.sol\":796:797  _ */\n      pop\n        /* \"contracts/RepublicCredit.sol\":1211:1564  function buy_hadcoins(address investor,uint usd_invested) external  can_buy_hadcoins(usd_invested){\r... */\n      pop\n      pop\n      pop\n      jump\t// out\n        /* \"contracts/RepublicCredit.sol\":231:265  uint public usd_to_hadcoins = 1000 */\n    tag_20:\n      sload(0x01)\n      dup2\n      jump\t// out\n        /* \"contracts/RepublicCredit.sol\":870:995  function equity_in_hadcoins(address investor) external view returns (uint){\r... */\n    tag_23:\n        /* \"contracts/RepublicCredit.sol\":939:943  uint */\n      0x00\n        /* \"contracts/RepublicCredit.sol\":962:977  equity_hadcoins */\n      0x03\n        /* \"contracts/RepublicCredit.sol\":962:987  equity_hadcoins[investor] */\n      0x00\n        /* \"contracts/RepublicCredit.sol\":978:986  investor */\n      dup4\n        /* \"contracts/RepublicCredit.sol\":962:987  equity_hadcoins[investor] */\n      0xffffffffffffffffffffffffffffffffffffffff\n      and\n      0xffffffffffffffffffffffffffffffffffffffff\n      and\n      dup2\n      mstore\n      0x20\n      add\n      swap1\n      dup2\n      mstore\n      0x20\n      add\n      0x00\n      keccak256\n      sload\n        /* \"contracts/RepublicCredit.sol\":955:987  return equity_hadcoins[investor] */\n      swap1\n      pop\n        /* \"contracts/RepublicCredit.sol\":870:995  function equity_in_hadcoins(address investor) external view returns (uint){\r... */\n      swap2\n      swap1\n      pop\n      jump\t// out\n        /* \"contracts/RepublicCredit.sol\":132:166  uint public max_hadcoins = 1000000 */\n    tag_25:\n      sload(0x00)\n      dup2\n      jump\t// out\n        /* \"contracts/RepublicCredit.sol\":1600:1846  function sell_hadcoins(address investor,uint hadcoins_sold) external {\r... */\n    tag_28:\n        /* \"contracts/RepublicCredit.sol\":1709:1722  hadcoins_sold */\n      dup1\n        /* \"contracts/RepublicCredit.sol\":1680:1695  equity_hadcoins */\n      0x03\n        /* \"contracts/RepublicCredit.sol\":1680:1705  equity_hadcoins[investor] */\n      0x00\n        /* \"contracts/RepublicCredit.sol\":1696:1704  investor */\n      dup5\n        /* \"contracts/RepublicCredit.sol\":1680:1705  equity_hadcoins[investor] */\n      0xffffffffffffffffffffffffffffffffffffffff\n      and\n      0xffffffffffffffffffffffffffffffffffffffff\n      and\n      dup2\n      mstore\n      0x20\n      add\n      swap1\n      dup2\n      mstore\n      0x20\n      add\n      0x00\n      keccak256\n      0x00\n        /* \"contracts/RepublicCredit.sol\":1680:1722  equity_hadcoins[investor] -= hadcoins_sold */\n      dup3\n      dup3\n      sload\n      sub\n      swap3\n      pop\n      pop\n      dup2\n      swap1\n      sstore\n      pop\n        /* \"contracts/RepublicCredit.sol\":1784:1788  1000 */\n      0x03e8\n        /* \"contracts/RepublicCredit.sol\":1756:1771  equity_hadcoins */\n      0x03\n        /* \"contracts/RepublicCredit.sol\":1756:1781  equity_hadcoins[investor] */\n      0x00\n        /* \"contracts/RepublicCredit.sol\":1772:1780  investor */\n      dup5\n        /* \"contracts/RepublicCredit.sol\":1756:1781  equity_hadcoins[investor] */\n      0xffffffffffffffffffffffffffffffffffffffff\n      and\n      0xffffffffffffffffffffffffffffffffffffffff\n      and\n      dup2\n      mstore\n      0x20\n      add\n      swap1\n      dup2\n      mstore\n      0x20\n      add\n      0x00\n      keccak256\n      sload\n        /* \"contracts/RepublicCredit.sol\":1756:1788  equity_hadcoins[investor] / 1000 */\n      dup2\n      tag_36\n      jumpi\n      invalid\n    tag_36:\n      div\n        /* \"contracts/RepublicCredit.sol\":1733:1743  equity_usd */\n      0x04\n        /* \"contracts/RepublicCredit.sol\":1733:1753  equity_usd[investor] */\n      0x00\n        /* \"contracts/RepublicCredit.sol\":1744:1752  investor */\n      dup5\n        /* \"contracts/RepublicCredit.sol\":1733:1753  equity_usd[investor] */\n      0xffffffffffffffffffffffffffffffffffffffff\n      and\n      0xffffffffffffffffffffffffffffffffffffffff\n      and\n      dup2\n      mstore\n      0x20\n      add\n      swap1\n      dup2\n      mstore\n      0x20\n      add\n      0x00\n      keccak256\n        /* \"contracts/RepublicCredit.sol\":1733:1788  equity_usd[investor] = equity_hadcoins[investor] / 1000 */\n      dup2\n      swap1\n      sstore\n      pop\n        /* \"contracts/RepublicCredit.sol\":1824:1837  hadcoins_sold */\n      dup1\n        /* \"contracts/RepublicCredit.sol\":1799:1820  total_hadcoins_bought */\n      0x02\n      0x00\n        /* \"contracts/RepublicCredit.sol\":1799:1837  total_hadcoins_bought -= hadcoins_sold */\n      dup3\n      dup3\n      sload\n      sub\n      swap3\n      pop\n      pop\n      dup2\n      swap1\n      sstore\n      pop\n        /* \"contracts/RepublicCredit.sol\":1600:1846  function sell_hadcoins(address investor,uint hadcoins_sold) external {\r... */\n      pop\n      pop\n      jump\t// out\n\n    auxdata: 0xa265627a7a7231582054ffb0dcc82bc46d3278fb7b8ca7e8694b52293a8c6524fd954e966ed74be44c64736f6c63430005110032\n}\n",
				"bytecode": {
					"linkReferences": {},
					"object": "6080604052620f42406000556103e8600155600060025534801561002257600080fd5b50610502806100326000396000f3fe608060405234801561001057600080fd5b506004361061007d5760003560e01c806393e2e2261161005b57806393e2e22614610146578063d2d35f8214610164578063df7fedf7146101bc578063e9052574146101da5761007d565b806310c51c1b146100825780637336971e146100da57806392088770146100f8575b600080fd5b6100c46004803603602081101561009857600080fd5b81019080803573ffffffffffffffffffffffffffffffffffffffff169060200190929190505050610228565b6040518082815260200191505060405180910390f35b6100e2610271565b6040518082815260200191505060405180910390f35b6101446004803603604081101561010e57600080fd5b81019080803573ffffffffffffffffffffffffffffffffffffffff16906020019092919080359060200190929190505050610277565b005b61014e610389565b6040518082815260200191505060405180910390f35b6101a66004803603602081101561017a57600080fd5b81019080803573ffffffffffffffffffffffffffffffffffffffff16906020019092919050505061038f565b6040518082815260200191505060405180910390f35b6101c46103d8565b6040518082815260200191505060405180910390f35b610226600480360360408110156101f057600080fd5b81019080803573ffffffffffffffffffffffffffffffffffffffff169060200190929190803590602001909291905050506103de565b005b6000600460008373ffffffffffffffffffffffffffffffffffffffff1673ffffffffffffffffffffffffffffffffffffffff168152602001908152602001600020549050919050565b60025481565b80600054600254600154830201111561028f57600080fd5b60006001548302905080600360008673ffffffffffffffffffffffffffffffffffffffff1673ffffffffffffffffffffffffffffffffffffffff16815260200190815260200160002060008282540192505081905550600154600360008673ffffffffffffffffffffffffffffffffffffffff1673ffffffffffffffffffffffffffffffffffffffff168152602001908152602001600020548161032f57fe5b04600460008673ffffffffffffffffffffffffffffffffffffffff1673ffffffffffffffffffffffffffffffffffffffff168152602001908152602001600020819055508060026000828254019250508190555050505050565b60015481565b6000600360008373ffffffffffffffffffffffffffffffffffffffff1673ffffffffffffffffffffffffffffffffffffffff168152602001908152602001600020549050919050565b60005481565b80600360008473ffffffffffffffffffffffffffffffffffffffff1673ffffffffffffffffffffffffffffffffffffffff168152602001908152602001600020600082825403925050819055506103e8600360008473ffffffffffffffffffffffffffffffffffffffff1673ffffffffffffffffffffffffffffffffffffffff168152602001908152602001600020548161047557fe5b04600460008473ffffffffffffffffffffffffffffffffffffffff1673ffffffffffffffffffffffffffffffffffffffff1681526020019081526020016000208190555080600260008282540392505081905550505056fea265627a7a7231582054ffb0dcc82bc46d3278fb7b8ca7e8694b52293a8c6524fd954e966ed74be44c64736f6c63430005110032",
					"opcodes": "PUSH1 0x80 PUSH1 0x40 MSTORE PUSH3 0xF4240 PUSH1 0x0 SSTORE PUSH2 0x3E8 PUSH1 0x1 SSTORE PUSH1 0x0 PUSH1 0x2 SSTORE CALLVALUE DUP1 ISZERO PUSH2 0x22 JUMPI PUSH1 0x0 DUP1 REVERT JUMPDEST POP PUSH2 0x502 DUP1 PUSH2 0x32 PUSH1 0x0 CODECOPY PUSH1 0x0 RETURN INVALID PUSH1 0x80 PUSH1 0x40 MSTORE CALLVALUE DUP1 ISZERO PUSH2 0x10 JUMPI PUSH1 0x0 DUP1 REVERT JUMPDEST POP PUSH1 0x4 CALLDATASIZE LT PUSH2 0x7D JUMPI PUSH1 0x0 CALLDATALOAD PUSH1 0xE0 SHR DUP1 PUSH4 0x93E2E226 GT PUSH2 0x5B JUMPI DUP1 PUSH4 0x93E2E226 EQ PUSH2 0x146 JUMPI DUP1 PUSH4 0xD2D35F82 EQ PUSH2 0x164 JUMPI DUP1 PUSH4 0xDF7FEDF7 EQ PUSH2 0x1BC JUMPI DUP1 PUSH4 0xE9052574 EQ PUSH2 0x1DA JUMPI PUSH2 0x7D JUMP JUMPDEST DUP1 PUSH4 0x10C51C1B EQ PUSH2 0x82 JUMPI DUP1 PUSH4 0x7336971E EQ PUSH2 0xDA JUMPI DUP1 PUSH4 0x92088770 EQ PUSH2 0xF8 JUMPI JUMPDEST PUSH1 0x0 DUP1 REVERT JUMPDEST PUSH2 0xC4 PUSH1 0x4 DUP1 CALLDATASIZE SUB PUSH1 0x20 DUP2 LT ISZERO PUSH2 0x98 JUMPI PUSH1 0x0 DUP1 REVERT JUMPDEST DUP2 ADD SWAP1 DUP1 DUP1 CALLDATALOAD PUSH20 0xFFFFFFFFFFFFFFFFFFFFFFFFFFFFFFFFFFFFFFFF AND SWAP1 PUSH1 0x20 ADD SWAP1 SWAP3 SWAP2 SWAP1 POP POP POP PUSH2 0x228 JUMP JUMPDEST PUSH1 0x40 MLOAD DUP1 DUP3 DUP2 MSTORE PUSH1 0x20 ADD SWAP2 POP POP PUSH1 0x40 MLOAD DUP1 SWAP2 SUB SWAP1 RETURN JUMPDEST PUSH2 0xE2 PUSH2 0x271 JUMP JUMPDEST PUSH1 0x40 MLOAD DUP1 DUP3 DUP2 MSTORE PUSH1 0x20 ADD SWAP2 POP POP PUSH1 0x40 MLOAD DUP1 SWAP2 SUB SWAP1 RETURN JUMPDEST PUSH2 0x144 PUSH1 0x4 DUP1 CALLDATASIZE SUB PUSH1 0x40 DUP2 LT ISZERO PUSH2 0x10E JUMPI PUSH1 0x0 DUP1 REVERT JUMPDEST DUP2 ADD SWAP1 DUP1 DUP1 CALLDATALOAD PUSH20 0xFFFFFFFFFFFFFFFFFFFFFFFFFFFFFFFFFFFFFFFF AND SWAP1 PUSH1 0x20 ADD SWAP1 SWAP3 SWAP2 SWAP1 DUP1 CALLDATALOAD SWAP1 PUSH1 0x20 ADD SWAP1 SWAP3 SWAP2 SWAP1 POP POP POP PUSH2 0x277 JUMP JUMPDEST STOP JUMPDEST PUSH2 0x14E PUSH2 0x389 JUMP JUMPDEST PUSH1 0x40 MLOAD DUP1 DUP3 DUP2 MSTORE PUSH1 0x20 ADD SWAP2 POP POP PUSH1 0x40 MLOAD DUP1 SWAP2 SUB SWAP1 RETURN JUMPDEST PUSH2 0x1A6 PUSH1 0x4 DUP1 CALLDATASIZE SUB PUSH1 0x20 DUP2 LT ISZERO PUSH2 0x17A JUMPI PUSH1 0x0 DUP1 REVERT JUMPDEST DUP2 ADD SWAP1 DUP1 DUP1 CALLDATALOAD PUSH20 0xFFFFFFFFFFFFFFFFFFFFFFFFFFFFFFFFFFFFFFFF AND SWAP1 PUSH1 0x20 ADD SWAP1 SWAP3 SWAP2 SWAP1 POP POP POP PUSH2 0x38F JUMP JUMPDEST PUSH1 0x40 MLOAD DUP1 DUP3 DUP2 MSTORE PUSH1 0x20 ADD SWAP2 POP POP PUSH1 0x40 MLOAD DUP1 SWAP2 SUB SWAP1 RETURN JUMPDEST PUSH2 0x1C4 PUSH2 0x3D8 JUMP JUMPDEST PUSH1 0x40 MLOAD DUP1 DUP3 DUP2 MSTORE PUSH1 0x20 ADD SWAP2 POP POP PUSH1 0x40 MLOAD DUP1 SWAP2 SUB SWAP1 RETURN JUMPDEST PUSH2 0x226 PUSH1 0x4 DUP1 CALLDATASIZE SUB PUSH1 0x40 DUP2 LT ISZERO PUSH2 0x1F0 JUMPI PUSH1 0x0 DUP1 REVERT JUMPDEST DUP2 ADD SWAP1 DUP1 DUP1 CALLDATALOAD PUSH20 0xFFFFFFFFFFFFFFFFFFFFFFFFFFFFFFFFFFFFFFFF AND SWAP1 PUSH1 0x20 ADD SWAP1 SWAP3 SWAP2 SWAP1 DUP1 CALLDATALOAD SWAP1 PUSH1 0x20 ADD SWAP1 SWAP3 SWAP2 SWAP1 POP POP POP PUSH2 0x3DE JUMP JUMPDEST STOP JUMPDEST PUSH1 0x0 PUSH1 0x4 PUSH1 0x0 DUP4 PUSH20 0xFFFFFFFFFFFFFFFFFFFFFFFFFFFFFFFFFFFFFFFF AND PUSH20 0xFFFFFFFFFFFFFFFFFFFFFFFFFFFFFFFFFFFFFFFF AND DUP2 MSTORE PUSH1 0x20 ADD SWAP1 DUP2 MSTORE PUSH1 0x20 ADD PUSH1 0x0 KECCAK256 SLOAD SWAP1 POP SWAP2 SWAP1 POP JUMP JUMPDEST PUSH1 0x2 SLOAD DUP2 JUMP JUMPDEST DUP1 PUSH1 0x0 SLOAD PUSH1 0x2 SLOAD PUSH1 0x1 SLOAD DUP4 MUL ADD GT ISZERO PUSH2 0x28F JUMPI PUSH1 0x0 DUP1 REVERT JUMPDEST PUSH1 0x0 PUSH1 0x1 SLOAD DUP4 MUL SWAP1 POP DUP1 PUSH1 0x3 PUSH1 0x0 DUP7 PUSH20 0xFFFFFFFFFFFFFFFFFFFFFFFFFFFFFFFFFFFFFFFF AND PUSH20 0xFFFFFFFFFFFFFFFFFFFFFFFFFFFFFFFFFFFFFFFF AND DUP2 MSTORE PUSH1 0x20 ADD SWAP1 DUP2 MSTORE PUSH1 0x20 ADD PUSH1 0x0 KECCAK256 PUSH1 0x0 DUP3 DUP3 SLOAD ADD SWAP3 POP POP DUP2 SWAP1 SSTORE POP PUSH1 0x1 SLOAD PUSH1 0x3 PUSH1 0x0 DUP7 PUSH20 0xFFFFFFFFFFFFFFFFFFFFFFFFFFFFFFFFFFFFFFFF AND PUSH20 0xFFFFFFFFFFFFFFFFFFFFFFFFFFFFFFFFFFFFFFFF AND DUP2 MSTORE PUSH1 0x20 ADD SWAP1 DUP2 MSTORE PUSH1 0x20 ADD PUSH1 0x0 KECCAK256 SLOAD DUP2 PUSH2 0x32F JUMPI INVALID JUMPDEST DIV PUSH1 0x4 PUSH1 0x0 DUP7 PUSH20 0xFFFFFFFFFFFFFFFFFFFFFFFFFFFFFFFFFFFFFFFF AND PUSH20 0xFFFFFFFFFFFFFFFFFFFFFFFFFFFFFFFFFFFFFFFF AND DUP2 MSTORE PUSH1 0x20 ADD SWAP1 DUP2 MSTORE PUSH1 0x20 ADD PUSH1 0x0 KECCAK256 DUP2 SWAP1 SSTORE POP DUP1 PUSH1 0x2 PUSH1 0x0 DUP3 DUP3 SLOAD ADD SWAP3 POP POP DUP2 SWAP1 SSTORE POP POP POP POP POP JUMP JUMPDEST PUSH1 0x1 SLOAD DUP2 JUMP JUMPDEST PUSH1 0x0 PUSH1 0x3 PUSH1 0x0 DUP4 PUSH20 0xFFFFFFFFFFFFFFFFFFFFFFFFFFFFFFFFFFFFFFFF AND PUSH20 0xFFFFFFFFFFFFFFFFFFFFFFFFFFFFFFFFFFFFFFFF AND DUP2 MSTORE PUSH1 0x20 ADD SWAP1 DUP2 MSTORE PUSH1 0x20 ADD PUSH1 0x0 KECCAK256 SLOAD SWAP1 POP SWAP2 SWAP1 POP JUMP JUMPDEST PUSH1 0x0 SLOAD DUP2 JUMP JUMPDEST DUP1 PUSH1 0x3 PUSH1 0x0 DUP5 PUSH20 0xFFFFFFFFFFFFFFFFFFFFFFFFFFFFFFFFFFFFFFFF AND PUSH20 0xFFFFFFFFFFFFFFFFFFFFFFFFFFFFFFFFFFFFFFFF AND DUP2 MSTORE PUSH1 0x20 ADD SWAP1 DUP2 MSTORE PUSH1 0x20 ADD PUSH1 0x0 KECCAK256 PUSH1 0x0 DUP3 DUP3 SLOAD SUB SWAP3 POP POP DUP2 SWAP1 SSTORE POP PUSH2 0x3E8 PUSH1 0x3 PUSH1 0x0 DUP5 PUSH20 0xFFFFFFFFFFFFFFFFFFFFFFFFFFFFFFFFFFFFFFFF AND PUSH20 0xFFFFFFFFFFFFFFFFFFFFFFFFFFFFFFFFFFFFFFFF AND DUP2 MSTORE PUSH1 0x20 ADD SWAP1 DUP2 MSTORE PUSH1 0x20 ADD PUSH1 0x0 KECCAK256 SLOAD DUP2 PUSH2 0x475 JUMPI INVALID JUMPDEST DIV PUSH1 0x4 PUSH1 0x0 DUP5 PUSH20 0xFFFFFFFFFFFFFFFFFFFFFFFFFFFFFFFFFFFFFFFF AND PUSH20 0xFFFFFFFFFFFFFFFFFFFFFFFFFFFFFFFFFFFFFFFF AND DUP2 MSTORE PUSH1 0x20 ADD SWAP1 DUP2 MSTORE PUSH1 0x20 ADD PUSH1 0x0 KECCAK256 DUP2 SWAP1 SSTORE POP DUP1 PUSH1 0x2 PUSH1 0x0 DUP3 DUP3 SLOAD SUB SWAP3 POP POP DUP2 SWAP1 SSTORE POP POP POP JUMP INVALID LOG2 PUSH6 0x627A7A723158 KECCAK256 SLOAD SELFDESTRUCT 0xB0 0xDC 0xC8 0x2B 0xC4 PUSH14 0x3278FB7B8CA7E8694B52293A8C65 0x24 REVERT SWAP6 0x4E SWAP7 PUSH15 0xD74BE44C64736F6C63430005110032 "
				},
				"gasEstimates": {
					"creation": {
						"codeDepositCost": "256400",
						"executionCost": "45318",
						"totalCost": "301718"
					},
					"external": {
						"buy_hadcoins(address,uint256)": "67149",
						"equity_in_hadcoins(address)": "1218",
						"equity_in_usd(address)": "1197",
						"max_hadcoins()": "1049",
						"sell_hadcoins(address,uint256)": "63104",
						"total_hadcoins_bought()": "1028",
						"usd_to_hadcoins()": "1005"
					}
				},
				"methodIdentifiers": {
					"buy_hadcoins(address,uint256)": "92088770",
					"equity_in_hadcoins(address)": "d2d35f82",
					"equity_in_usd(address)": "10c51c1b",
					"max_hadcoins()": "df7fedf7",
					"sell_hadcoins(address,uint256)": "e9052574",
					"total_hadcoins_bought()": "7336971e",
					"usd_to_hadcoins()": "93e2e226"
				}
			},
			"storageLayout": {
				"storage": [
					{
						"astId": 4,
						"contract": "contracts/RepublicCredit.sol:hadcoin_ico",
						"label": "max_hadcoins",
						"offset": 0,
						"slot": "0",
						"type": "t_uint256"
					},
					{
						"astId": 7,
						"contract": "contracts/RepublicCredit.sol:hadcoin_ico",
						"label": "usd_to_hadcoins",
						"offset": 0,
						"slot": "1",
						"type": "t_uint256"
					},
					{
						"astId": 10,
						"contract": "contracts/RepublicCredit.sol:hadcoin_ico",
						"label": "total_hadcoins_bought",
						"offset": 0,
						"slot": "2",
						"type": "t_uint256"
					},
					{
						"astId": 14,
						"contract": "contracts/RepublicCredit.sol:hadcoin_ico",
						"label": "equity_hadcoins",
						"offset": 0,
						"slot": "3",
						"type": "t_mapping(t_address,t_uint256)"
					},
					{
						"astId": 18,
						"contract": "contracts/RepublicCredit.sol:hadcoin_ico",
						"label": "equity_usd",
						"offset": 0,
						"slot": "4",
						"type": "t_mapping(t_address,t_uint256)"
					}
				],
				"types": {
					"t_address": {
						"encoding": "inplace",
						"label": "address",
						"numberOfBytes": "20"
					},
					"t_mapping(t_address,t_uint256)": {
						"encoding": "mapping",
						"key": "t_address",
						"label": "mapping(address => uint256)",
						"numberOfBytes": "32",
						"value": "t_uint256"
					},
					"t_uint256": {
						"encoding": "inplace",
						"label": "uint256",
						"numberOfBytes": "32"
					}
				}
			},
			"userdoc": {
				"methods": {}
			}
		}
	}
}