{
	"contracts/RepublicCredit.sol": {
		"RepublicCredit": {
			"abi": [
				{
					"inputs": [
						{
							"internalType": "address",
							"name": "CoinHolder",
							"type": "address"
						},
						{
							"internalType": "uint256",
							"name": "USDinvested",
							"type": "uint256"
						}
					],
					"name": "BuyRepublicCredit",
					"outputs": [],
					"stateMutability": "nonpayable",
					"type": "function"
				},
				{
					"inputs": [
						{
							"internalType": "address",
							"name": "CoinHolder",
							"type": "address"
						}
					],
					"name": "EquityinRepublicCredit",
					"outputs": [
						{
							"internalType": "uint256",
							"name": "",
							"type": "uint256"
						}
					],
					"stateMutability": "view",
					"type": "function"
				},
				{
					"inputs": [],
					"name": "Purchase",
					"outputs": [
						{
							"internalType": "uint256",
							"name": "",
							"type": "uint256"
						}
					],
					"stateMutability": "view",
					"type": "function"
				},
				{
					"inputs": [
						{
							"internalType": "address",
							"name": "CoinHolder",
							"type": "address"
						},
						{
							"internalType": "uint256",
							"name": "CoinSold",
							"type": "uint256"
						}
					],
					"name": "SellRepublicCredit",
					"outputs": [],
					"stateMutability": "nonpayable",
					"type": "function"
				},
				{
					"inputs": [],
					"name": "TotalRepublicCredit",
					"outputs": [
						{
							"internalType": "uint256",
							"name": "",
							"type": "uint256"
						}
					],
					"stateMutability": "view",
					"type": "function"
				},
				{
					"inputs": [],
					"name": "USDRepublicCredit",
					"outputs": [
						{
							"internalType": "uint256",
							"name": "",
							"type": "uint256"
						}
					],
					"stateMutability": "view",
					"type": "function"
				},
				{
					"inputs": [
						{
							"internalType": "address",
							"name": "CoinHolder",
							"type": "address"
						}
					],
					"name": "equity_in_usd",
					"outputs": [
						{
							"internalType": "uint256",
							"name": "",
							"type": "uint256"
						}
					],
					"stateMutability": "view",
					"type": "function"
				}
			],
			"devdoc": {
				"kind": "dev",
				"methods": {},
				"version": 1
			},
			"evm": {
				"assembly": "    /* \"contracts/RepublicCredit.sol\":72:1467  contract RepublicCredit ... */\n  mstore(0x40, 0x80)\n    /* \"contracts/RepublicCredit.sol\":145:152  1000000 */\n  0x0f4240\n    /* \"contracts/RepublicCredit.sol\":111:152  uint public TotalRepublicCredit = 1000000 */\n  0x00\n  sstore\n    /* \"contracts/RepublicCredit.sol\":191:195  1000 */\n  0x03e8\n    /* \"contracts/RepublicCredit.sol\":159:195  uint public USDRepublicCredit = 1000 */\n  0x01\n  sstore\n    /* \"contracts/RepublicCredit.sol\":225:226  0 */\n  0x00\n    /* \"contracts/RepublicCredit.sol\":202:226  uint public Purchase = 0 */\n  0x02\n  sstore\n    /* \"contracts/RepublicCredit.sol\":72:1467  contract RepublicCredit ... */\n  callvalue\n  dup1\n  iszero\n  tag_1\n  jumpi\n  0x00\n  dup1\n  revert\ntag_1:\n  pop\n  dataSize(sub_0)\n  dup1\n  dataOffset(sub_0)\n  0x00\n  codecopy\n  0x00\n  return\nstop\n\nsub_0: assembly {\n        /* \"contracts/RepublicCredit.sol\":72:1467  contract RepublicCredit ... */\n      mstore(0x40, 0x80)\n      callvalue\n      dup1\n      iszero\n      tag_1\n      jumpi\n      0x00\n      dup1\n      revert\n    tag_1:\n      pop\n      jumpi(tag_2, lt(calldatasize, 0x04))\n      shr(0xe0, calldataload(0x00))\n      dup1\n      0x813b34a6\n      gt\n      tag_10\n      jumpi\n      dup1\n      0x813b34a6\n      eq\n      tag_6\n      jumpi\n      dup1\n      0x93388920\n      eq\n      tag_7\n      jumpi\n      dup1\n      0xbb046249\n      eq\n      tag_8\n      jumpi\n      dup1\n      0xe1d5de44\n      eq\n      tag_9\n      jumpi\n      jump(tag_2)\n    tag_10:\n      dup1\n      0x10c51c1b\n      eq\n      tag_3\n      jumpi\n      dup1\n      0x49c15bd9\n      eq\n      tag_4\n      jumpi\n      dup1\n      0x7ebc31bf\n      eq\n      tag_5\n      jumpi\n    tag_2:\n      0x00\n      dup1\n      revert\n        /* \"contracts/RepublicCredit.sol\":667:799  function equity_in_usd(address CoinHolder) external view returns (uint)... */\n    tag_3:\n      tag_11\n      0x04\n      dup1\n      calldatasize\n      sub\n      dup2\n      add\n      swap1\n      tag_12\n      swap2\n      swap1\n      tag_13\n      jump\t// in\n    tag_12:\n      tag_14\n      jump\t// in\n    tag_11:\n      mload(0x40)\n      tag_15\n      swap2\n      swap1\n      tag_16\n      jump\t// in\n    tag_15:\n      mload(0x40)\n      dup1\n      swap2\n      sub\n      swap1\n      return\n        /* \"contracts/RepublicCredit.sol\":202:226  uint public Purchase = 0 */\n    tag_4:\n      tag_17\n      tag_18\n      jump\t// in\n    tag_17:\n      mload(0x40)\n      tag_19\n      swap2\n      swap1\n      tag_16\n      jump\t// in\n    tag_19:\n      mload(0x40)\n      dup1\n      swap2\n      sub\n      swap1\n      return\n        /* \"contracts/RepublicCredit.sol\":111:152  uint public TotalRepublicCredit = 1000000 */\n    tag_5:\n      tag_20\n      tag_21\n      jump\t// in\n    tag_20:\n      mload(0x40)\n      tag_22\n      swap2\n      swap1\n      tag_16\n      jump\t// in\n    tag_22:\n      mload(0x40)\n      dup1\n      swap2\n      sub\n      swap1\n      return\n        /* \"contracts/RepublicCredit.sol\":511:655  function EquityinRepublicCredit(address CoinHolder) external view returns (uint)... */\n    tag_6:\n      tag_23\n      0x04\n      dup1\n      calldatasize\n      sub\n      dup2\n      add\n      swap1\n      tag_24\n      swap2\n      swap1\n      tag_13\n      jump\t// in\n    tag_24:\n      tag_25\n      jump\t// in\n    tag_23:\n      mload(0x40)\n      tag_26\n      swap2\n      swap1\n      tag_16\n      jump\t// in\n    tag_26:\n      mload(0x40)\n      dup1\n      swap2\n      sub\n      swap1\n      return\n        /* \"contracts/RepublicCredit.sol\":159:195  uint public USDRepublicCredit = 1000 */\n    tag_7:\n      tag_27\n      tag_28\n      jump\t// in\n    tag_27:\n      mload(0x40)\n      tag_29\n      swap2\n      swap1\n      tag_16\n      jump\t// in\n    tag_29:\n      mload(0x40)\n      dup1\n      swap2\n      sub\n      swap1\n      return\n        /* \"contracts/RepublicCredit.sol\":811:1189  function BuyRepublicCredit(address CoinHolder,uint USDinvested) external  RepublicCreditBuy(USDinvested)... */\n    tag_8:\n      tag_30\n      0x04\n      dup1\n      calldatasize\n      sub\n      dup2\n      add\n      swap1\n      tag_31\n      swap2\n      swap1\n      tag_32\n      jump\t// in\n    tag_31:\n      tag_33\n      jump\t// in\n    tag_30:\n      stop\n        /* \"contracts/RepublicCredit.sol\":1201:1455  function SellRepublicCredit(address CoinHolder,uint CoinSold) external ... */\n    tag_9:\n      tag_34\n      0x04\n      dup1\n      calldatasize\n      sub\n      dup2\n      add\n      swap1\n      tag_35\n      swap2\n      swap1\n      tag_32\n      jump\t// in\n    tag_35:\n      tag_36\n      jump\t// in\n    tag_34:\n      stop\n        /* \"contracts/RepublicCredit.sol\":667:799  function equity_in_usd(address CoinHolder) external view returns (uint)... */\n    tag_14:\n        /* \"contracts/RepublicCredit.sol\":733:737  uint */\n      0x00\n        /* \"contracts/RepublicCredit.sol\":762:779  RepublicCreditUSD */\n      0x04\n        /* \"contracts/RepublicCredit.sol\":762:791  RepublicCreditUSD[CoinHolder] */\n      0x00\n        /* \"contracts/RepublicCredit.sol\":780:790  CoinHolder */\n      dup4\n        /* \"contracts/RepublicCredit.sol\":762:791  RepublicCreditUSD[CoinHolder] */\n      0xffffffffffffffffffffffffffffffffffffffff\n      and\n      0xffffffffffffffffffffffffffffffffffffffff\n      and\n      dup2\n      mstore\n      0x20\n      add\n      swap1\n      dup2\n      mstore\n      0x20\n      add\n      0x00\n      keccak256\n      sload\n        /* \"contracts/RepublicCredit.sol\":755:791  return RepublicCreditUSD[CoinHolder] */\n      swap1\n      pop\n        /* \"contracts/RepublicCredit.sol\":667:799  function equity_in_usd(address CoinHolder) external view returns (uint)... */\n      swap2\n      swap1\n      pop\n      jump\t// out\n        /* \"contracts/RepublicCredit.sol\":202:226  uint public Purchase = 0 */\n    tag_18:\n      sload(0x02)\n      dup2\n      jump\t// out\n        /* \"contracts/RepublicCredit.sol\":111:152  uint public TotalRepublicCredit = 1000000 */\n    tag_21:\n      sload(0x00)\n      dup2\n      jump\t// out\n        /* \"contracts/RepublicCredit.sol\":511:655  function EquityinRepublicCredit(address CoinHolder) external view returns (uint)... */\n    tag_25:\n        /* \"contracts/RepublicCredit.sol\":586:590  uint */\n      0x00\n        /* \"contracts/RepublicCredit.sol\":615:635  RepublicCreditEquity */\n      0x03\n        /* \"contracts/RepublicCredit.sol\":615:647  RepublicCreditEquity[CoinHolder] */\n      0x00\n        /* \"contracts/RepublicCredit.sol\":636:646  CoinHolder */\n      dup4\n        /* \"contracts/RepublicCredit.sol\":615:647  RepublicCreditEquity[CoinHolder] */\n      0xffffffffffffffffffffffffffffffffffffffff\n      and\n      0xffffffffffffffffffffffffffffffffffffffff\n      and\n      dup2\n      mstore\n      0x20\n      add\n      swap1\n      dup2\n      mstore\n      0x20\n      add\n      0x00\n      keccak256\n      sload\n        /* \"contracts/RepublicCredit.sol\":608:647  return RepublicCreditEquity[CoinHolder] */\n      swap1\n      pop\n        /* \"contracts/RepublicCredit.sol\":511:655  function EquityinRepublicCredit(address CoinHolder) external view returns (uint)... */\n      swap2\n      swap1\n      pop\n      jump\t// out\n        /* \"contracts/RepublicCredit.sol\":159:195  uint public USDRepublicCredit = 1000 */\n    tag_28:\n      sload(0x01)\n      dup2\n      jump\t// out\n        /* \"contracts/RepublicCredit.sol\":811:1189  function BuyRepublicCredit(address CoinHolder,uint USDinvested) external  RepublicCreditBuy(USDinvested)... */\n    tag_33:\n        /* \"contracts/RepublicCredit.sol\":903:914  USDinvested */\n      dup1\n        /* \"contracts/RepublicCredit.sol\":458:477  TotalRepublicCredit */\n      sload(0x00)\n        /* \"contracts/RepublicCredit.sol\":446:454  Purchase */\n      sload(0x02)\n        /* \"contracts/RepublicCredit.sol\":426:443  USDRepublicCredit */\n      sload(0x01)\n        /* \"contracts/RepublicCredit.sol\":411:422  USDinvested */\n      dup4\n        /* \"contracts/RepublicCredit.sol\":411:443  USDinvested  * USDRepublicCredit */\n      tag_40\n      swap2\n      swap1\n      tag_41\n      jump\t// in\n    tag_40:\n        /* \"contracts/RepublicCredit.sol\":411:454  USDinvested  * USDRepublicCredit + Purchase */\n      tag_42\n      swap2\n      swap1\n      tag_43\n      jump\t// in\n    tag_42:\n        /* \"contracts/RepublicCredit.sol\":411:477  USDinvested  * USDRepublicCredit + Purchase <= TotalRepublicCredit */\n      gt\n      iszero\n        /* \"contracts/RepublicCredit.sol\":403:479  require(USDinvested  * USDRepublicCredit + Purchase <= TotalRepublicCredit ) */\n      tag_44\n      jumpi\n      0x00\n      dup1\n      revert\n    tag_44:\n        /* \"contracts/RepublicCredit.sol\":932:953  uint  hadcoins_bought */\n      0x00\n        /* \"contracts/RepublicCredit.sol\":969:986  USDRepublicCredit */\n      sload(0x01)\n        /* \"contracts/RepublicCredit.sol\":956:967  USDinvested */\n      dup4\n        /* \"contracts/RepublicCredit.sol\":956:986  USDinvested *USDRepublicCredit */\n      tag_46\n      swap2\n      swap1\n      tag_41\n      jump\t// in\n    tag_46:\n        /* \"contracts/RepublicCredit.sol\":932:986  uint  hadcoins_bought = USDinvested *USDRepublicCredit */\n      swap1\n      pop\n        /* \"contracts/RepublicCredit.sol\":1033:1048  hadcoins_bought */\n      dup1\n        /* \"contracts/RepublicCredit.sol\":997:1017  RepublicCreditEquity */\n      0x03\n        /* \"contracts/RepublicCredit.sol\":997:1029  RepublicCreditEquity[CoinHolder] */\n      0x00\n        /* \"contracts/RepublicCredit.sol\":1018:1028  CoinHolder */\n      dup7\n        /* \"contracts/RepublicCredit.sol\":997:1029  RepublicCreditEquity[CoinHolder] */\n      0xffffffffffffffffffffffffffffffffffffffff\n      and\n      0xffffffffffffffffffffffffffffffffffffffff\n      and\n      dup2\n      mstore\n      0x20\n      add\n      swap1\n      dup2\n      mstore\n      0x20\n      add\n      0x00\n      keccak256\n      0x00\n        /* \"contracts/RepublicCredit.sol\":997:1048  RepublicCreditEquity[CoinHolder] += hadcoins_bought */\n      dup3\n      dup3\n      sload\n      tag_47\n      swap2\n      swap1\n      tag_43\n      jump\t// in\n    tag_47:\n      swap3\n      pop\n      pop\n      dup2\n      swap1\n      sstore\n      pop\n        /* \"contracts/RepublicCredit.sol\":1126:1143  USDRepublicCredit */\n      sload(0x01)\n        /* \"contracts/RepublicCredit.sol\":1091:1111  RepublicCreditEquity */\n      0x03\n        /* \"contracts/RepublicCredit.sol\":1091:1123  RepublicCreditEquity[CoinHolder] */\n      0x00\n        /* \"contracts/RepublicCredit.sol\":1112:1122  CoinHolder */\n      dup7\n        /* \"contracts/RepublicCredit.sol\":1091:1123  RepublicCreditEquity[CoinHolder] */\n      0xffffffffffffffffffffffffffffffffffffffff\n      and\n      0xffffffffffffffffffffffffffffffffffffffff\n      and\n      dup2\n      mstore\n      0x20\n      add\n      swap1\n      dup2\n      mstore\n      0x20\n      add\n      0x00\n      keccak256\n      sload\n        /* \"contracts/RepublicCredit.sol\":1091:1143  RepublicCreditEquity[CoinHolder] / USDRepublicCredit */\n      tag_48\n      swap2\n      swap1\n      tag_49\n      jump\t// in\n    tag_48:\n        /* \"contracts/RepublicCredit.sol\":1059:1076  RepublicCreditUSD */\n      0x04\n        /* \"contracts/RepublicCredit.sol\":1059:1088  RepublicCreditUSD[CoinHolder] */\n      0x00\n        /* \"contracts/RepublicCredit.sol\":1077:1087  CoinHolder */\n      dup7\n        /* \"contracts/RepublicCredit.sol\":1059:1088  RepublicCreditUSD[CoinHolder] */\n      0xffffffffffffffffffffffffffffffffffffffff\n      and\n      0xffffffffffffffffffffffffffffffffffffffff\n      and\n      dup2\n      mstore\n      0x20\n      add\n      swap1\n      dup2\n      mstore\n      0x20\n      add\n      0x00\n      keccak256\n        /* \"contracts/RepublicCredit.sol\":1059:1143  RepublicCreditUSD[CoinHolder] = RepublicCreditEquity[CoinHolder] / USDRepublicCredit */\n      dup2\n      swap1\n      sstore\n      pop\n        /* \"contracts/RepublicCredit.sol\":1166:1181  hadcoins_bought */\n      dup1\n        /* \"contracts/RepublicCredit.sol\":1154:1162  Purchase */\n      0x02\n      0x00\n        /* \"contracts/RepublicCredit.sol\":1154:1181  Purchase += hadcoins_bought */\n      dup3\n      dup3\n      sload\n      tag_50\n      swap2\n      swap1\n      tag_43\n      jump\t// in\n    tag_50:\n      swap3\n      pop\n      pop\n      dup2\n      swap1\n      sstore\n      pop\n        /* \"contracts/RepublicCredit.sol\":921:1189  {... */\n      pop\n        /* \"contracts/RepublicCredit.sol\":811:1189  function BuyRepublicCredit(address CoinHolder,uint USDinvested) external  RepublicCreditBuy(USDinvested)... */\n      pop\n      pop\n      pop\n      jump\t// out\n        /* \"contracts/RepublicCredit.sol\":1201:1455  function SellRepublicCredit(address CoinHolder,uint CoinSold) external ... */\n    tag_36:\n        /* \"contracts/RepublicCredit.sol\":1325:1333  CoinSold */\n      dup1\n        /* \"contracts/RepublicCredit.sol\":1289:1309  RepublicCreditEquity */\n      0x03\n        /* \"contracts/RepublicCredit.sol\":1289:1321  RepublicCreditEquity[CoinHolder] */\n      0x00\n        /* \"contracts/RepublicCredit.sol\":1310:1320  CoinHolder */\n      dup5\n        /* \"contracts/RepublicCredit.sol\":1289:1321  RepublicCreditEquity[CoinHolder] */\n      0xffffffffffffffffffffffffffffffffffffffff\n      and\n      0xffffffffffffffffffffffffffffffffffffffff\n      and\n      dup2\n      mstore\n      0x20\n      add\n      swap1\n      dup2\n      mstore\n      0x20\n      add\n      0x00\n      keccak256\n      0x00\n        /* \"contracts/RepublicCredit.sol\":1289:1333  RepublicCreditEquity[CoinHolder] -= CoinSold */\n      dup3\n      dup3\n      sload\n      tag_52\n      swap2\n      swap1\n      tag_53\n      jump\t// in\n    tag_52:\n      swap3\n      pop\n      pop\n      dup2\n      swap1\n      sstore\n      pop\n        /* \"contracts/RepublicCredit.sol\":1411:1415  1000 */\n      0x03e8\n        /* \"contracts/RepublicCredit.sol\":1376:1396  RepublicCreditEquity */\n      0x03\n        /* \"contracts/RepublicCredit.sol\":1376:1408  RepublicCreditEquity[CoinHolder] */\n      0x00\n        /* \"contracts/RepublicCredit.sol\":1397:1407  CoinHolder */\n      dup5\n        /* \"contracts/RepublicCredit.sol\":1376:1408  RepublicCreditEquity[CoinHolder] */\n      0xffffffffffffffffffffffffffffffffffffffff\n      and\n      0xffffffffffffffffffffffffffffffffffffffff\n      and\n      dup2\n      mstore\n      0x20\n      add\n      swap1\n      dup2\n      mstore\n      0x20\n      add\n      0x00\n      keccak256\n      sload\n        /* \"contracts/RepublicCredit.sol\":1376:1415  RepublicCreditEquity[CoinHolder] / 1000 */\n      tag_54\n      swap2\n      swap1\n      tag_49\n      jump\t// in\n    tag_54:\n        /* \"contracts/RepublicCredit.sol\":1344:1361  RepublicCreditUSD */\n      0x04\n        /* \"contracts/RepublicCredit.sol\":1344:1373  RepublicCreditUSD[CoinHolder] */\n      0x00\n        /* \"contracts/RepublicCredit.sol\":1362:1372  CoinHolder */\n      dup5\n        /* \"contracts/RepublicCredit.sol\":1344:1373  RepublicCreditUSD[CoinHolder] */\n      0xffffffffffffffffffffffffffffffffffffffff\n      and\n      0xffffffffffffffffffffffffffffffffffffffff\n      and\n      dup2\n      mstore\n      0x20\n      add\n      swap1\n      dup2\n      mstore\n      0x20\n      add\n      0x00\n      keccak256\n        /* \"contracts/RepublicCredit.sol\":1344:1415  RepublicCreditUSD[CoinHolder] = RepublicCreditEquity[CoinHolder] / 1000 */\n      dup2\n      swap1\n      sstore\n      pop\n        /* \"contracts/RepublicCredit.sol\":1438:1446  CoinSold */\n      dup1\n        /* \"contracts/RepublicCredit.sol\":1426:1434  Purchase */\n      0x02\n      0x00\n        /* \"contracts/RepublicCredit.sol\":1426:1446  Purchase -= CoinSold */\n      dup3\n      dup3\n      sload\n      tag_55\n      swap2\n      swap1\n      tag_53\n      jump\t// in\n    tag_55:\n      swap3\n      pop\n      pop\n      dup2\n      swap1\n      sstore\n      pop\n        /* \"contracts/RepublicCredit.sol\":1201:1455  function SellRepublicCredit(address CoinHolder,uint CoinSold) external ... */\n      pop\n      pop\n      jump\t// out\n        /* \"#utility.yul\":88:205   */\n    tag_57:\n        /* \"#utility.yul\":197:198   */\n      0x00\n        /* \"#utility.yul\":194:195   */\n      dup1\n        /* \"#utility.yul\":187:199   */\n      revert\n        /* \"#utility.yul\":334:460   */\n    tag_59:\n        /* \"#utility.yul\":371:378   */\n      0x00\n        /* \"#utility.yul\":411:453   */\n      0xffffffffffffffffffffffffffffffffffffffff\n        /* \"#utility.yul\":404:409   */\n      dup3\n        /* \"#utility.yul\":400:454   */\n      and\n        /* \"#utility.yul\":389:454   */\n      swap1\n      pop\n        /* \"#utility.yul\":334:460   */\n      swap2\n      swap1\n      pop\n      jump\t// out\n        /* \"#utility.yul\":466:562   */\n    tag_60:\n        /* \"#utility.yul\":503:510   */\n      0x00\n        /* \"#utility.yul\":532:556   */\n      tag_75\n        /* \"#utility.yul\":550:555   */\n      dup3\n        /* \"#utility.yul\":532:556   */\n      tag_59\n      jump\t// in\n    tag_75:\n        /* \"#utility.yul\":521:556   */\n      swap1\n      pop\n        /* \"#utility.yul\":466:562   */\n      swap2\n      swap1\n      pop\n      jump\t// out\n        /* \"#utility.yul\":568:690   */\n    tag_61:\n        /* \"#utility.yul\":641:665   */\n      tag_77\n        /* \"#utility.yul\":659:664   */\n      dup2\n        /* \"#utility.yul\":641:665   */\n      tag_60\n      jump\t// in\n    tag_77:\n        /* \"#utility.yul\":634:639   */\n      dup2\n        /* \"#utility.yul\":631:666   */\n      eq\n        /* \"#utility.yul\":621:684   */\n      tag_78\n      jumpi\n        /* \"#utility.yul\":680:681   */\n      0x00\n        /* \"#utility.yul\":677:678   */\n      dup1\n        /* \"#utility.yul\":670:682   */\n      revert\n        /* \"#utility.yul\":621:684   */\n    tag_78:\n        /* \"#utility.yul\":568:690   */\n      pop\n      jump\t// out\n        /* \"#utility.yul\":696:835   */\n    tag_62:\n        /* \"#utility.yul\":742:747   */\n      0x00\n        /* \"#utility.yul\":780:786   */\n      dup2\n        /* \"#utility.yul\":767:787   */\n      calldataload\n        /* \"#utility.yul\":758:787   */\n      swap1\n      pop\n        /* \"#utility.yul\":796:829   */\n      tag_80\n        /* \"#utility.yul\":823:828   */\n      dup2\n        /* \"#utility.yul\":796:829   */\n      tag_61\n      jump\t// in\n    tag_80:\n        /* \"#utility.yul\":696:835   */\n      swap3\n      swap2\n      pop\n      pop\n      jump\t// out\n        /* \"#utility.yul\":841:1170   */\n    tag_13:\n        /* \"#utility.yul\":900:906   */\n      0x00\n        /* \"#utility.yul\":949:951   */\n      0x20\n        /* \"#utility.yul\":937:946   */\n      dup3\n        /* \"#utility.yul\":928:935   */\n      dup5\n        /* \"#utility.yul\":924:947   */\n      sub\n        /* \"#utility.yul\":920:952   */\n      slt\n        /* \"#utility.yul\":917:1036   */\n      iszero\n      tag_82\n      jumpi\n        /* \"#utility.yul\":955:1034   */\n      tag_83\n      tag_57\n      jump\t// in\n    tag_83:\n        /* \"#utility.yul\":917:1036   */\n    tag_82:\n        /* \"#utility.yul\":1075:1076   */\n      0x00\n        /* \"#utility.yul\":1100:1153   */\n      tag_84\n        /* \"#utility.yul\":1145:1152   */\n      dup5\n        /* \"#utility.yul\":1136:1142   */\n      dup3\n        /* \"#utility.yul\":1125:1134   */\n      dup6\n        /* \"#utility.yul\":1121:1143   */\n      add\n        /* \"#utility.yul\":1100:1153   */\n      tag_62\n      jump\t// in\n    tag_84:\n        /* \"#utility.yul\":1090:1153   */\n      swap2\n      pop\n        /* \"#utility.yul\":1046:1163   */\n      pop\n        /* \"#utility.yul\":841:1170   */\n      swap3\n      swap2\n      pop\n      pop\n      jump\t// out\n        /* \"#utility.yul\":1176:1253   */\n    tag_63:\n        /* \"#utility.yul\":1213:1220   */\n      0x00\n        /* \"#utility.yul\":1242:1247   */\n      dup2\n        /* \"#utility.yul\":1231:1247   */\n      swap1\n      pop\n        /* \"#utility.yul\":1176:1253   */\n      swap2\n      swap1\n      pop\n      jump\t// out\n        /* \"#utility.yul\":1259:1377   */\n    tag_64:\n        /* \"#utility.yul\":1346:1370   */\n      tag_87\n        /* \"#utility.yul\":1364:1369   */\n      dup2\n        /* \"#utility.yul\":1346:1370   */\n      tag_63\n      jump\t// in\n    tag_87:\n        /* \"#utility.yul\":1341:1344   */\n      dup3\n        /* \"#utility.yul\":1334:1371   */\n      mstore\n        /* \"#utility.yul\":1259:1377   */\n      pop\n      pop\n      jump\t// out\n        /* \"#utility.yul\":1383:1605   */\n    tag_16:\n        /* \"#utility.yul\":1476:1480   */\n      0x00\n        /* \"#utility.yul\":1514:1516   */\n      0x20\n        /* \"#utility.yul\":1503:1512   */\n      dup3\n        /* \"#utility.yul\":1499:1517   */\n      add\n        /* \"#utility.yul\":1491:1517   */\n      swap1\n      pop\n        /* \"#utility.yul\":1527:1598   */\n      tag_89\n        /* \"#utility.yul\":1595:1596   */\n      0x00\n        /* \"#utility.yul\":1584:1593   */\n      dup4\n        /* \"#utility.yul\":1580:1597   */\n      add\n        /* \"#utility.yul\":1571:1577   */\n      dup5\n        /* \"#utility.yul\":1527:1598   */\n      tag_64\n      jump\t// in\n    tag_89:\n        /* \"#utility.yul\":1383:1605   */\n      swap3\n      swap2\n      pop\n      pop\n      jump\t// out\n        /* \"#utility.yul\":1611:1733   */\n    tag_65:\n        /* \"#utility.yul\":1684:1708   */\n      tag_91\n        /* \"#utility.yul\":1702:1707   */\n      dup2\n        /* \"#utility.yul\":1684:1708   */\n      tag_63\n      jump\t// in\n    tag_91:\n        /* \"#utility.yul\":1677:1682   */\n      dup2\n        /* \"#utility.yul\":1674:1709   */\n      eq\n        /* \"#utility.yul\":1664:1727   */\n      tag_92\n      jumpi\n        /* \"#utility.yul\":1723:1724   */\n      0x00\n        /* \"#utility.yul\":1720:1721   */\n      dup1\n        /* \"#utility.yul\":1713:1725   */\n      revert\n        /* \"#utility.yul\":1664:1727   */\n    tag_92:\n        /* \"#utility.yul\":1611:1733   */\n      pop\n      jump\t// out\n        /* \"#utility.yul\":1739:1878   */\n    tag_66:\n        /* \"#utility.yul\":1785:1790   */\n      0x00\n        /* \"#utility.yul\":1823:1829   */\n      dup2\n        /* \"#utility.yul\":1810:1830   */\n      calldataload\n        /* \"#utility.yul\":1801:1830   */\n      swap1\n      pop\n        /* \"#utility.yul\":1839:1872   */\n      tag_94\n        /* \"#utility.yul\":1866:1871   */\n      dup2\n        /* \"#utility.yul\":1839:1872   */\n      tag_65\n      jump\t// in\n    tag_94:\n        /* \"#utility.yul\":1739:1878   */\n      swap3\n      swap2\n      pop\n      pop\n      jump\t// out\n        /* \"#utility.yul\":1884:2358   */\n    tag_32:\n        /* \"#utility.yul\":1952:1958   */\n      0x00\n        /* \"#utility.yul\":1960:1966   */\n      dup1\n        /* \"#utility.yul\":2009:2011   */\n      0x40\n        /* \"#utility.yul\":1997:2006   */\n      dup4\n        /* \"#utility.yul\":1988:1995   */\n      dup6\n        /* \"#utility.yul\":1984:2007   */\n      sub\n        /* \"#utility.yul\":1980:2012   */\n      slt\n        /* \"#utility.yul\":1977:2096   */\n      iszero\n      tag_96\n      jumpi\n        /* \"#utility.yul\":2015:2094   */\n      tag_97\n      tag_57\n      jump\t// in\n    tag_97:\n        /* \"#utility.yul\":1977:2096   */\n    tag_96:\n        /* \"#utility.yul\":2135:2136   */\n      0x00\n        /* \"#utility.yul\":2160:2213   */\n      tag_98\n        /* \"#utility.yul\":2205:2212   */\n      dup6\n        /* \"#utility.yul\":2196:2202   */\n      dup3\n        /* \"#utility.yul\":2185:2194   */\n      dup7\n        /* \"#utility.yul\":2181:2203   */\n      add\n        /* \"#utility.yul\":2160:2213   */\n      tag_62\n      jump\t// in\n    tag_98:\n        /* \"#utility.yul\":2150:2213   */\n      swap3\n      pop\n        /* \"#utility.yul\":2106:2223   */\n      pop\n        /* \"#utility.yul\":2262:2264   */\n      0x20\n        /* \"#utility.yul\":2288:2341   */\n      tag_99\n        /* \"#utility.yul\":2333:2340   */\n      dup6\n        /* \"#utility.yul\":2324:2330   */\n      dup3\n        /* \"#utility.yul\":2313:2322   */\n      dup7\n        /* \"#utility.yul\":2309:2331   */\n      add\n        /* \"#utility.yul\":2288:2341   */\n      tag_66\n      jump\t// in\n    tag_99:\n        /* \"#utility.yul\":2278:2341   */\n      swap2\n      pop\n        /* \"#utility.yul\":2233:2351   */\n      pop\n        /* \"#utility.yul\":1884:2358   */\n      swap3\n      pop\n      swap3\n      swap1\n      pop\n      jump\t// out\n        /* \"#utility.yul\":2364:2544   */\n    tag_67:\n        /* \"#utility.yul\":2412:2489   */\n      0x4e487b7100000000000000000000000000000000000000000000000000000000\n        /* \"#utility.yul\":2409:2410   */\n      0x00\n        /* \"#utility.yul\":2402:2490   */\n      mstore\n        /* \"#utility.yul\":2509:2513   */\n      0x11\n        /* \"#utility.yul\":2506:2507   */\n      0x04\n        /* \"#utility.yul\":2499:2514   */\n      mstore\n        /* \"#utility.yul\":2533:2537   */\n      0x24\n        /* \"#utility.yul\":2530:2531   */\n      0x00\n        /* \"#utility.yul\":2523:2538   */\n      revert\n        /* \"#utility.yul\":2550:2898   */\n    tag_41:\n        /* \"#utility.yul\":2590:2597   */\n      0x00\n        /* \"#utility.yul\":2613:2633   */\n      tag_102\n        /* \"#utility.yul\":2631:2632   */\n      dup3\n        /* \"#utility.yul\":2613:2633   */\n      tag_63\n      jump\t// in\n    tag_102:\n        /* \"#utility.yul\":2608:2633   */\n      swap2\n      pop\n        /* \"#utility.yul\":2647:2667   */\n      tag_103\n        /* \"#utility.yul\":2665:2666   */\n      dup4\n        /* \"#utility.yul\":2647:2667   */\n      tag_63\n      jump\t// in\n    tag_103:\n        /* \"#utility.yul\":2642:2667   */\n      swap3\n      pop\n        /* \"#utility.yul\":2835:2836   */\n      dup2\n        /* \"#utility.yul\":2767:2833   */\n      0xffffffffffffffffffffffffffffffffffffffffffffffffffffffffffffffff\n        /* \"#utility.yul\":2763:2837   */\n      div\n        /* \"#utility.yul\":2760:2761   */\n      dup4\n        /* \"#utility.yul\":2757:2838   */\n      gt\n        /* \"#utility.yul\":2752:2753   */\n      dup3\n        /* \"#utility.yul\":2745:2754   */\n      iszero\n        /* \"#utility.yul\":2738:2755   */\n      iszero\n        /* \"#utility.yul\":2734:2839   */\n      and\n        /* \"#utility.yul\":2731:2862   */\n      iszero\n      tag_104\n      jumpi\n        /* \"#utility.yul\":2842:2860   */\n      tag_105\n      tag_67\n      jump\t// in\n    tag_105:\n        /* \"#utility.yul\":2731:2862   */\n    tag_104:\n        /* \"#utility.yul\":2890:2891   */\n      dup3\n        /* \"#utility.yul\":2887:2888   */\n      dup3\n        /* \"#utility.yul\":2883:2892   */\n      mul\n        /* \"#utility.yul\":2872:2892   */\n      swap1\n      pop\n        /* \"#utility.yul\":2550:2898   */\n      swap3\n      swap2\n      pop\n      pop\n      jump\t// out\n        /* \"#utility.yul\":2904:3095   */\n    tag_43:\n        /* \"#utility.yul\":2944:2947   */\n      0x00\n        /* \"#utility.yul\":2963:2983   */\n      tag_107\n        /* \"#utility.yul\":2981:2982   */\n      dup3\n        /* \"#utility.yul\":2963:2983   */\n      tag_63\n      jump\t// in\n    tag_107:\n        /* \"#utility.yul\":2958:2983   */\n      swap2\n      pop\n        /* \"#utility.yul\":2997:3017   */\n      tag_108\n        /* \"#utility.yul\":3015:3016   */\n      dup4\n        /* \"#utility.yul\":2997:3017   */\n      tag_63\n      jump\t// in\n    tag_108:\n        /* \"#utility.yul\":2992:3017   */\n      swap3\n      pop\n        /* \"#utility.yul\":3040:3041   */\n      dup3\n        /* \"#utility.yul\":3037:3038   */\n      dup3\n        /* \"#utility.yul\":3033:3042   */\n      add\n        /* \"#utility.yul\":3026:3042   */\n      swap1\n      pop\n        /* \"#utility.yul\":3061:3064   */\n      dup1\n        /* \"#utility.yul\":3058:3059   */\n      dup3\n        /* \"#utility.yul\":3055:3065   */\n      gt\n        /* \"#utility.yul\":3052:3088   */\n      iszero\n      tag_109\n      jumpi\n        /* \"#utility.yul\":3068:3086   */\n      tag_110\n      tag_67\n      jump\t// in\n    tag_110:\n        /* \"#utility.yul\":3052:3088   */\n    tag_109:\n        /* \"#utility.yul\":2904:3095   */\n      swap3\n      swap2\n      pop\n      pop\n      jump\t// out\n        /* \"#utility.yul\":3101:3281   */\n    tag_68:\n        /* \"#utility.yul\":3149:3226   */\n      0x4e487b7100000000000000000000000000000000000000000000000000000000\n        /* \"#utility.yul\":3146:3147   */\n      0x00\n        /* \"#utility.yul\":3139:3227   */\n      mstore\n        /* \"#utility.yul\":3246:3250   */\n      0x12\n        /* \"#utility.yul\":3243:3244   */\n      0x04\n        /* \"#utility.yul\":3236:3251   */\n      mstore\n        /* \"#utility.yul\":3270:3274   */\n      0x24\n        /* \"#utility.yul\":3267:3268   */\n      0x00\n        /* \"#utility.yul\":3260:3275   */\n      revert\n        /* \"#utility.yul\":3287:3472   */\n    tag_49:\n        /* \"#utility.yul\":3327:3328   */\n      0x00\n        /* \"#utility.yul\":3344:3364   */\n      tag_113\n        /* \"#utility.yul\":3362:3363   */\n      dup3\n        /* \"#utility.yul\":3344:3364   */\n      tag_63\n      jump\t// in\n    tag_113:\n        /* \"#utility.yul\":3339:3364   */\n      swap2\n      pop\n        /* \"#utility.yul\":3378:3398   */\n      tag_114\n        /* \"#utility.yul\":3396:3397   */\n      dup4\n        /* \"#utility.yul\":3378:3398   */\n      tag_63\n      jump\t// in\n    tag_114:\n        /* \"#utility.yul\":3373:3398   */\n      swap3\n      pop\n        /* \"#utility.yul\":3417:3418   */\n      dup3\n        /* \"#utility.yul\":3407:3442   */\n      tag_115\n      jumpi\n        /* \"#utility.yul\":3422:3440   */\n      tag_116\n      tag_68\n      jump\t// in\n    tag_116:\n        /* \"#utility.yul\":3407:3442   */\n    tag_115:\n        /* \"#utility.yul\":3464:3465   */\n      dup3\n        /* \"#utility.yul\":3461:3462   */\n      dup3\n        /* \"#utility.yul\":3457:3466   */\n      div\n        /* \"#utility.yul\":3452:3466   */\n      swap1\n      pop\n        /* \"#utility.yul\":3287:3472   */\n      swap3\n      swap2\n      pop\n      pop\n      jump\t// out\n        /* \"#utility.yul\":3478:3672   */\n    tag_53:\n        /* \"#utility.yul\":3518:3522   */\n      0x00\n        /* \"#utility.yul\":3538:3558   */\n      tag_118\n        /* \"#utility.yul\":3556:3557   */\n      dup3\n        /* \"#utility.yul\":3538:3558   */\n      tag_63\n      jump\t// in\n    tag_118:\n        /* \"#utility.yul\":3533:3558   */\n      swap2\n      pop\n        /* \"#utility.yul\":3572:3592   */\n      tag_119\n        /* \"#utility.yul\":3590:3591   */\n      dup4\n        /* \"#utility.yul\":3572:3592   */\n      tag_63\n      jump\t// in\n    tag_119:\n        /* \"#utility.yul\":3567:3592   */\n      swap3\n      pop\n        /* \"#utility.yul\":3616:3617   */\n      dup3\n        /* \"#utility.yul\":3613:3614   */\n      dup3\n        /* \"#utility.yul\":3609:3618   */\n      sub\n        /* \"#utility.yul\":3601:3618   */\n      swap1\n      pop\n        /* \"#utility.yul\":3640:3641   */\n      dup2\n        /* \"#utility.yul\":3634:3638   */\n      dup2\n        /* \"#utility.yul\":3631:3642   */\n      gt\n        /* \"#utility.yul\":3628:3665   */\n      iszero\n      tag_120\n      jumpi\n        /* \"#utility.yul\":3645:3663   */\n      tag_121\n      tag_67\n      jump\t// in\n    tag_121:\n        /* \"#utility.yul\":3628:3665   */\n    tag_120:\n        /* \"#utility.yul\":3478:3672   */\n      swap3\n      swap2\n      pop\n      pop\n      jump\t// out\n\n    auxdata: 0xa26469706673582212204e45e2d5d70514018be042ab524ca7b0529cc7fcc0076655b48b8b9bb283cda864736f6c63430008100033\n}\n",
				"bytecode": {
					"linkReferences": {},
					"object": "6080604052620f42406000556103e8600155600060025534801561002257600080fd5b50610713806100326000396000f3fe608060405234801561001057600080fd5b506004361061007d5760003560e01c8063813b34a61161005b578063813b34a6146100ee578063933889201461011e578063bb0462491461013c578063e1d5de44146101585761007d565b806310c51c1b1461008257806349c15bd9146100b25780637ebc31bf146100d0575b600080fd5b61009c600480360381019061009791906104bf565b610174565b6040516100a99190610505565b60405180910390f35b6100ba6101bd565b6040516100c79190610505565b60405180910390f35b6100d86101c3565b6040516100e59190610505565b60405180910390f35b610108600480360381019061010391906104bf565b6101c9565b6040516101159190610505565b60405180910390f35b610126610212565b6040516101339190610505565b60405180910390f35b6101566004803603810190610151919061054c565b610218565b005b610172600480360381019061016d919061054c565b610359565b005b6000600460008373ffffffffffffffffffffffffffffffffffffffff1673ffffffffffffffffffffffffffffffffffffffff168152602001908152602001600020549050919050565b60025481565b60005481565b6000600360008373ffffffffffffffffffffffffffffffffffffffff1673ffffffffffffffffffffffffffffffffffffffff168152602001908152602001600020549050919050565b60015481565b806000546002546001548361022d91906105bb565b6102379190610615565b111561024257600080fd5b60006001548361025291906105bb565b905080600360008673ffffffffffffffffffffffffffffffffffffffff1673ffffffffffffffffffffffffffffffffffffffff16815260200190815260200160002060008282546102a39190610615565b92505081905550600154600360008673ffffffffffffffffffffffffffffffffffffffff1673ffffffffffffffffffffffffffffffffffffffff168152602001908152602001600020546102f79190610678565b600460008673ffffffffffffffffffffffffffffffffffffffff1673ffffffffffffffffffffffffffffffffffffffff16815260200190815260200160002081905550806002600082825461034c9190610615565b9250508190555050505050565b80600360008473ffffffffffffffffffffffffffffffffffffffff1673ffffffffffffffffffffffffffffffffffffffff16815260200190815260200160002060008282546103a891906106a9565b925050819055506103e8600360008473ffffffffffffffffffffffffffffffffffffffff1673ffffffffffffffffffffffffffffffffffffffff168152602001908152602001600020546103fc9190610678565b600460008473ffffffffffffffffffffffffffffffffffffffff1673ffffffffffffffffffffffffffffffffffffffff16815260200190815260200160002081905550806002600082825461045191906106a9565b925050819055505050565b600080fd5b600073ffffffffffffffffffffffffffffffffffffffff82169050919050565b600061048c82610461565b9050919050565b61049c81610481565b81146104a757600080fd5b50565b6000813590506104b981610493565b92915050565b6000602082840312156104d5576104d461045c565b5b60006104e3848285016104aa565b91505092915050565b6000819050919050565b6104ff816104ec565b82525050565b600060208201905061051a60008301846104f6565b92915050565b610529816104ec565b811461053457600080fd5b50565b60008135905061054681610520565b92915050565b600080604083850312156105635761056261045c565b5b6000610571858286016104aa565b925050602061058285828601610537565b9150509250929050565b7f4e487b7100000000000000000000000000000000000000000000000000000000600052601160045260246000fd5b60006105c6826104ec565b91506105d1836104ec565b9250817fffffffffffffffffffffffffffffffffffffffffffffffffffffffffffffffff048311821515161561060a5761060961058c565b5b828202905092915050565b6000610620826104ec565b915061062b836104ec565b92508282019050808211156106435761064261058c565b5b92915050565b7f4e487b7100000000000000000000000000000000000000000000000000000000600052601260045260246000fd5b6000610683826104ec565b915061068e836104ec565b92508261069e5761069d610649565b5b828204905092915050565b60006106b4826104ec565b91506106bf836104ec565b92508282039050818111156106d7576106d661058c565b5b9291505056fea26469706673582212204e45e2d5d70514018be042ab524ca7b0529cc7fcc0076655b48b8b9bb283cda864736f6c63430008100033",
					"opcodes": "PUSH1 0x80 PUSH1 0x40 MSTORE PUSH3 0xF4240 PUSH1 0x0 SSTORE PUSH2 0x3E8 PUSH1 0x1 SSTORE PUSH1 0x0 PUSH1 0x2 SSTORE CALLVALUE DUP1 ISZERO PUSH2 0x22 JUMPI PUSH1 0x0 DUP1 REVERT JUMPDEST POP PUSH2 0x713 DUP1 PUSH2 0x32 PUSH1 0x0 CODECOPY PUSH1 0x0 RETURN INVALID PUSH1 0x80 PUSH1 0x40 MSTORE CALLVALUE DUP1 ISZERO PUSH2 0x10 JUMPI PUSH1 0x0 DUP1 REVERT JUMPDEST POP PUSH1 0x4 CALLDATASIZE LT PUSH2 0x7D JUMPI PUSH1 0x0 CALLDATALOAD PUSH1 0xE0 SHR DUP1 PUSH4 0x813B34A6 GT PUSH2 0x5B JUMPI DUP1 PUSH4 0x813B34A6 EQ PUSH2 0xEE JUMPI DUP1 PUSH4 0x93388920 EQ PUSH2 0x11E JUMPI DUP1 PUSH4 0xBB046249 EQ PUSH2 0x13C JUMPI DUP1 PUSH4 0xE1D5DE44 EQ PUSH2 0x158 JUMPI PUSH2 0x7D JUMP JUMPDEST DUP1 PUSH4 0x10C51C1B EQ PUSH2 0x82 JUMPI DUP1 PUSH4 0x49C15BD9 EQ PUSH2 0xB2 JUMPI DUP1 PUSH4 0x7EBC31BF EQ PUSH2 0xD0 JUMPI JUMPDEST PUSH1 0x0 DUP1 REVERT JUMPDEST PUSH2 0x9C PUSH1 0x4 DUP1 CALLDATASIZE SUB DUP2 ADD SWAP1 PUSH2 0x97 SWAP2 SWAP1 PUSH2 0x4BF JUMP JUMPDEST PUSH2 0x174 JUMP JUMPDEST PUSH1 0x40 MLOAD PUSH2 0xA9 SWAP2 SWAP1 PUSH2 0x505 JUMP JUMPDEST PUSH1 0x40 MLOAD DUP1 SWAP2 SUB SWAP1 RETURN JUMPDEST PUSH2 0xBA PUSH2 0x1BD JUMP JUMPDEST PUSH1 0x40 MLOAD PUSH2 0xC7 SWAP2 SWAP1 PUSH2 0x505 JUMP JUMPDEST PUSH1 0x40 MLOAD DUP1 SWAP2 SUB SWAP1 RETURN JUMPDEST PUSH2 0xD8 PUSH2 0x1C3 JUMP JUMPDEST PUSH1 0x40 MLOAD PUSH2 0xE5 SWAP2 SWAP1 PUSH2 0x505 JUMP JUMPDEST PUSH1 0x40 MLOAD DUP1 SWAP2 SUB SWAP1 RETURN JUMPDEST PUSH2 0x108 PUSH1 0x4 DUP1 CALLDATASIZE SUB DUP2 ADD SWAP1 PUSH2 0x103 SWAP2 SWAP1 PUSH2 0x4BF JUMP JUMPDEST PUSH2 0x1C9 JUMP JUMPDEST PUSH1 0x40 MLOAD PUSH2 0x115 SWAP2 SWAP1 PUSH2 0x505 JUMP JUMPDEST PUSH1 0x40 MLOAD DUP1 SWAP2 SUB SWAP1 RETURN JUMPDEST PUSH2 0x126 PUSH2 0x212 JUMP JUMPDEST PUSH1 0x40 MLOAD PUSH2 0x133 SWAP2 SWAP1 PUSH2 0x505 JUMP JUMPDEST PUSH1 0x40 MLOAD DUP1 SWAP2 SUB SWAP1 RETURN JUMPDEST PUSH2 0x156 PUSH1 0x4 DUP1 CALLDATASIZE SUB DUP2 ADD SWAP1 PUSH2 0x151 SWAP2 SWAP1 PUSH2 0x54C JUMP JUMPDEST PUSH2 0x218 JUMP JUMPDEST STOP JUMPDEST PUSH2 0x172 PUSH1 0x4 DUP1 CALLDATASIZE SUB DUP2 ADD SWAP1 PUSH2 0x16D SWAP2 SWAP1 PUSH2 0x54C JUMP JUMPDEST PUSH2 0x359 JUMP JUMPDEST STOP JUMPDEST PUSH1 0x0 PUSH1 0x4 PUSH1 0x0 DUP4 PUSH20 0xFFFFFFFFFFFFFFFFFFFFFFFFFFFFFFFFFFFFFFFF AND PUSH20 0xFFFFFFFFFFFFFFFFFFFFFFFFFFFFFFFFFFFFFFFF AND DUP2 MSTORE PUSH1 0x20 ADD SWAP1 DUP2 MSTORE PUSH1 0x20 ADD PUSH1 0x0 KECCAK256 SLOAD SWAP1 POP SWAP2 SWAP1 POP JUMP JUMPDEST PUSH1 0x2 SLOAD DUP2 JUMP JUMPDEST PUSH1 0x0 SLOAD DUP2 JUMP JUMPDEST PUSH1 0x0 PUSH1 0x3 PUSH1 0x0 DUP4 PUSH20 0xFFFFFFFFFFFFFFFFFFFFFFFFFFFFFFFFFFFFFFFF AND PUSH20 0xFFFFFFFFFFFFFFFFFFFFFFFFFFFFFFFFFFFFFFFF AND DUP2 MSTORE PUSH1 0x20 ADD SWAP1 DUP2 MSTORE PUSH1 0x20 ADD PUSH1 0x0 KECCAK256 SLOAD SWAP1 POP SWAP2 SWAP1 POP JUMP JUMPDEST PUSH1 0x1 SLOAD DUP2 JUMP JUMPDEST DUP1 PUSH1 0x0 SLOAD PUSH1 0x2 SLOAD PUSH1 0x1 SLOAD DUP4 PUSH2 0x22D SWAP2 SWAP1 PUSH2 0x5BB JUMP JUMPDEST PUSH2 0x237 SWAP2 SWAP1 PUSH2 0x615 JUMP JUMPDEST GT ISZERO PUSH2 0x242 JUMPI PUSH1 0x0 DUP1 REVERT JUMPDEST PUSH1 0x0 PUSH1 0x1 SLOAD DUP4 PUSH2 0x252 SWAP2 SWAP1 PUSH2 0x5BB JUMP JUMPDEST SWAP1 POP DUP1 PUSH1 0x3 PUSH1 0x0 DUP7 PUSH20 0xFFFFFFFFFFFFFFFFFFFFFFFFFFFFFFFFFFFFFFFF AND PUSH20 0xFFFFFFFFFFFFFFFFFFFFFFFFFFFFFFFFFFFFFFFF AND DUP2 MSTORE PUSH1 0x20 ADD SWAP1 DUP2 MSTORE PUSH1 0x20 ADD PUSH1 0x0 KECCAK256 PUSH1 0x0 DUP3 DUP3 SLOAD PUSH2 0x2A3 SWAP2 SWAP1 PUSH2 0x615 JUMP JUMPDEST SWAP3 POP POP DUP2 SWAP1 SSTORE POP PUSH1 0x1 SLOAD PUSH1 0x3 PUSH1 0x0 DUP7 PUSH20 0xFFFFFFFFFFFFFFFFFFFFFFFFFFFFFFFFFFFFFFFF AND PUSH20 0xFFFFFFFFFFFFFFFFFFFFFFFFFFFFFFFFFFFFFFFF AND DUP2 MSTORE PUSH1 0x20 ADD SWAP1 DUP2 MSTORE PUSH1 0x20 ADD PUSH1 0x0 KECCAK256 SLOAD PUSH2 0x2F7 SWAP2 SWAP1 PUSH2 0x678 JUMP JUMPDEST PUSH1 0x4 PUSH1 0x0 DUP7 PUSH20 0xFFFFFFFFFFFFFFFFFFFFFFFFFFFFFFFFFFFFFFFF AND PUSH20 0xFFFFFFFFFFFFFFFFFFFFFFFFFFFFFFFFFFFFFFFF AND DUP2 MSTORE PUSH1 0x20 ADD SWAP1 DUP2 MSTORE PUSH1 0x20 ADD PUSH1 0x0 KECCAK256 DUP2 SWAP1 SSTORE POP DUP1 PUSH1 0x2 PUSH1 0x0 DUP3 DUP3 SLOAD PUSH2 0x34C SWAP2 SWAP1 PUSH2 0x615 JUMP JUMPDEST SWAP3 POP POP DUP2 SWAP1 SSTORE POP POP POP POP POP JUMP JUMPDEST DUP1 PUSH1 0x3 PUSH1 0x0 DUP5 PUSH20 0xFFFFFFFFFFFFFFFFFFFFFFFFFFFFFFFFFFFFFFFF AND PUSH20 0xFFFFFFFFFFFFFFFFFFFFFFFFFFFFFFFFFFFFFFFF AND DUP2 MSTORE PUSH1 0x20 ADD SWAP1 DUP2 MSTORE PUSH1 0x20 ADD PUSH1 0x0 KECCAK256 PUSH1 0x0 DUP3 DUP3 SLOAD PUSH2 0x3A8 SWAP2 SWAP1 PUSH2 0x6A9 JUMP JUMPDEST SWAP3 POP POP DUP2 SWAP1 SSTORE POP PUSH2 0x3E8 PUSH1 0x3 PUSH1 0x0 DUP5 PUSH20 0xFFFFFFFFFFFFFFFFFFFFFFFFFFFFFFFFFFFFFFFF AND PUSH20 0xFFFFFFFFFFFFFFFFFFFFFFFFFFFFFFFFFFFFFFFF AND DUP2 MSTORE PUSH1 0x20 ADD SWAP1 DUP2 MSTORE PUSH1 0x20 ADD PUSH1 0x0 KECCAK256 SLOAD PUSH2 0x3FC SWAP2 SWAP1 PUSH2 0x678 JUMP JUMPDEST PUSH1 0x4 PUSH1 0x0 DUP5 PUSH20 0xFFFFFFFFFFFFFFFFFFFFFFFFFFFFFFFFFFFFFFFF AND PUSH20 0xFFFFFFFFFFFFFFFFFFFFFFFFFFFFFFFFFFFFFFFF AND DUP2 MSTORE PUSH1 0x20 ADD SWAP1 DUP2 MSTORE PUSH1 0x20 ADD PUSH1 0x0 KECCAK256 DUP2 SWAP1 SSTORE POP DUP1 PUSH1 0x2 PUSH1 0x0 DUP3 DUP3 SLOAD PUSH2 0x451 SWAP2 SWAP1 PUSH2 0x6A9 JUMP JUMPDEST SWAP3 POP POP DUP2 SWAP1 SSTORE POP POP POP JUMP JUMPDEST PUSH1 0x0 DUP1 REVERT JUMPDEST PUSH1 0x0 PUSH20 0xFFFFFFFFFFFFFFFFFFFFFFFFFFFFFFFFFFFFFFFF DUP3 AND SWAP1 POP SWAP2 SWAP1 POP JUMP JUMPDEST PUSH1 0x0 PUSH2 0x48C DUP3 PUSH2 0x461 JUMP JUMPDEST SWAP1 POP SWAP2 SWAP1 POP JUMP JUMPDEST PUSH2 0x49C DUP2 PUSH2 0x481 JUMP JUMPDEST DUP2 EQ PUSH2 0x4A7 JUMPI PUSH1 0x0 DUP1 REVERT JUMPDEST POP JUMP JUMPDEST PUSH1 0x0 DUP2 CALLDATALOAD SWAP1 POP PUSH2 0x4B9 DUP2 PUSH2 0x493 JUMP JUMPDEST SWAP3 SWAP2 POP POP JUMP JUMPDEST PUSH1 0x0 PUSH1 0x20 DUP3 DUP5 SUB SLT ISZERO PUSH2 0x4D5 JUMPI PUSH2 0x4D4 PUSH2 0x45C JUMP JUMPDEST JUMPDEST PUSH1 0x0 PUSH2 0x4E3 DUP5 DUP3 DUP6 ADD PUSH2 0x4AA JUMP JUMPDEST SWAP2 POP POP SWAP3 SWAP2 POP POP JUMP JUMPDEST PUSH1 0x0 DUP2 SWAP1 POP SWAP2 SWAP1 POP JUMP JUMPDEST PUSH2 0x4FF DUP2 PUSH2 0x4EC JUMP JUMPDEST DUP3 MSTORE POP POP JUMP JUMPDEST PUSH1 0x0 PUSH1 0x20 DUP3 ADD SWAP1 POP PUSH2 0x51A PUSH1 0x0 DUP4 ADD DUP5 PUSH2 0x4F6 JUMP JUMPDEST SWAP3 SWAP2 POP POP JUMP JUMPDEST PUSH2 0x529 DUP2 PUSH2 0x4EC JUMP JUMPDEST DUP2 EQ PUSH2 0x534 JUMPI PUSH1 0x0 DUP1 REVERT JUMPDEST POP JUMP JUMPDEST PUSH1 0x0 DUP2 CALLDATALOAD SWAP1 POP PUSH2 0x546 DUP2 PUSH2 0x520 JUMP JUMPDEST SWAP3 SWAP2 POP POP JUMP JUMPDEST PUSH1 0x0 DUP1 PUSH1 0x40 DUP4 DUP6 SUB SLT ISZERO PUSH2 0x563 JUMPI PUSH2 0x562 PUSH2 0x45C JUMP JUMPDEST JUMPDEST PUSH1 0x0 PUSH2 0x571 DUP6 DUP3 DUP7 ADD PUSH2 0x4AA JUMP JUMPDEST SWAP3 POP POP PUSH1 0x20 PUSH2 0x582 DUP6 DUP3 DUP7 ADD PUSH2 0x537 JUMP JUMPDEST SWAP2 POP POP SWAP3 POP SWAP3 SWAP1 POP JUMP JUMPDEST PUSH32 0x4E487B7100000000000000000000000000000000000000000000000000000000 PUSH1 0x0 MSTORE PUSH1 0x11 PUSH1 0x4 MSTORE PUSH1 0x24 PUSH1 0x0 REVERT JUMPDEST PUSH1 0x0 PUSH2 0x5C6 DUP3 PUSH2 0x4EC JUMP JUMPDEST SWAP2 POP PUSH2 0x5D1 DUP4 PUSH2 0x4EC JUMP JUMPDEST SWAP3 POP DUP2 PUSH32 0xFFFFFFFFFFFFFFFFFFFFFFFFFFFFFFFFFFFFFFFFFFFFFFFFFFFFFFFFFFFFFFFF DIV DUP4 GT DUP3 ISZERO ISZERO AND ISZERO PUSH2 0x60A JUMPI PUSH2 0x609 PUSH2 0x58C JUMP JUMPDEST JUMPDEST DUP3 DUP3 MUL SWAP1 POP SWAP3 SWAP2 POP POP JUMP JUMPDEST PUSH1 0x0 PUSH2 0x620 DUP3 PUSH2 0x4EC JUMP JUMPDEST SWAP2 POP PUSH2 0x62B DUP4 PUSH2 0x4EC JUMP JUMPDEST SWAP3 POP DUP3 DUP3 ADD SWAP1 POP DUP1 DUP3 GT ISZERO PUSH2 0x643 JUMPI PUSH2 0x642 PUSH2 0x58C JUMP JUMPDEST JUMPDEST SWAP3 SWAP2 POP POP JUMP JUMPDEST PUSH32 0x4E487B7100000000000000000000000000000000000000000000000000000000 PUSH1 0x0 MSTORE PUSH1 0x12 PUSH1 0x4 MSTORE PUSH1 0x24 PUSH1 0x0 REVERT JUMPDEST PUSH1 0x0 PUSH2 0x683 DUP3 PUSH2 0x4EC JUMP JUMPDEST SWAP2 POP PUSH2 0x68E DUP4 PUSH2 0x4EC JUMP JUMPDEST SWAP3 POP DUP3 PUSH2 0x69E JUMPI PUSH2 0x69D PUSH2 0x649 JUMP JUMPDEST JUMPDEST DUP3 DUP3 DIV SWAP1 POP SWAP3 SWAP2 POP POP JUMP JUMPDEST PUSH1 0x0 PUSH2 0x6B4 DUP3 PUSH2 0x4EC JUMP JUMPDEST SWAP2 POP PUSH2 0x6BF DUP4 PUSH2 0x4EC JUMP JUMPDEST SWAP3 POP DUP3 DUP3 SUB SWAP1 POP DUP2 DUP2 GT ISZERO PUSH2 0x6D7 JUMPI PUSH2 0x6D6 PUSH2 0x58C JUMP JUMPDEST JUMPDEST SWAP3 SWAP2 POP POP JUMP INVALID LOG2 PUSH5 0x6970667358 0x22 SLT KECCAK256 0x4E GASLIMIT 0xE2 0xD5 0xD7 SDIV EQ ADD DUP12 0xE0 TIMESTAMP 0xAB MSTORE 0x4C 0xA7 0xB0 MSTORE SWAP13 0xC7 0xFC 0xC0 SMOD PUSH7 0x55B48B8B9BB283 0xCD 0xA8 PUSH5 0x736F6C6343 STOP ADDMOD LT STOP CALLER "
				},
				"gasEstimates": {
					"creation": {
						"codeDepositCost": "362200",
						"executionCost": "49617",
						"totalCost": "411817"
					},
					"external": {
						"BuyRepublicCredit(address,uint256)": "infinite",
						"EquityinRepublicCredit(address)": "2841",
						"Purchase()": "2452",
						"SellRepublicCredit(address,uint256)": "infinite",
						"TotalRepublicCredit()": "2474",
						"USDRepublicCredit()": "2451",
						"equity_in_usd(address)": "2842"
					}
				},
				"methodIdentifiers": {
					"BuyRepublicCredit(address,uint256)": "bb046249",
					"EquityinRepublicCredit(address)": "813b34a6",
					"Purchase()": "49c15bd9",
					"SellRepublicCredit(address,uint256)": "e1d5de44",
					"TotalRepublicCredit()": "7ebc31bf",
					"USDRepublicCredit()": "93388920",
					"equity_in_usd(address)": "10c51c1b"
				}
			},
			"storageLayout": {
				"storage": [
					{
						"astId": 4,
						"contract": "contracts/RepublicCredit.sol:RepublicCredit",
						"label": "TotalRepublicCredit",
						"offset": 0,
						"slot": "0",
						"type": "t_uint256"
					},
					{
						"astId": 7,
						"contract": "contracts/RepublicCredit.sol:RepublicCredit",
						"label": "USDRepublicCredit",
						"offset": 0,
						"slot": "1",
						"type": "t_uint256"
					},
					{
						"astId": 10,
						"contract": "contracts/RepublicCredit.sol:RepublicCredit",
						"label": "Purchase",
						"offset": 0,
						"slot": "2",
						"type": "t_uint256"
					},
					{
						"astId": 14,
						"contract": "contracts/RepublicCredit.sol:RepublicCredit",
						"label": "RepublicCreditEquity",
						"offset": 0,
						"slot": "3",
						"type": "t_mapping(t_address,t_uint256)"
					},
					{
						"astId": 18,
						"contract": "contracts/RepublicCredit.sol:RepublicCredit",
						"label": "RepublicCreditUSD",
						"offset": 0,
						"slot": "4",
						"type": "t_mapping(t_address,t_uint256)"
					}
				],
				"types": {
					"t_address": {
						"encoding": "inplace",
						"label": "address",
						"numberOfBytes": "20"
					},
					"t_mapping(t_address,t_uint256)": {
						"encoding": "mapping",
						"key": "t_address",
						"label": "mapping(address => uint256)",
						"numberOfBytes": "32",
						"value": "t_uint256"
					},
					"t_uint256": {
						"encoding": "inplace",
						"label": "uint256",
						"numberOfBytes": "32"
					}
				}
			},
			"userdoc": {
				"kind": "user",
				"methods": {},
				"version": 1
			}
		}
	}
}