{
	"contracts/RepublicCredit.sol": {
		"hadcoin_ico": {
			"abi": [
				{
					"constant": true,
					"inputs": [
						{
							"internalType": "address",
							"name": "investor",
							"type": "address"
						}
					],
					"name": "Equi",
					"outputs": [
						{
							"internalType": "uint256",
							"name": "",
							"type": "uint256"
						}
					],
					"payable": false,
					"stateMutability": "view",
					"type": "function"
				},
				{
					"constant": true,
					"inputs": [],
					"name": "USDRepublicCredit",
					"outputs": [
						{
							"internalType": "uint256",
							"name": "",
							"type": "uint256"
						}
					],
					"payable": false,
					"stateMutability": "view",
					"type": "function"
				},
				{
					"constant": false,
					"inputs": [
						{
							"internalType": "address",
							"name": "investor",
							"type": "address"
						},
						{
							"internalType": "uint256",
							"name": "USDinvested",
							"type": "uint256"
						}
					],
					"name": "buy_hadcoins",
					"outputs": [],
					"payable": false,
					"stateMutability": "nonpayable",
					"type": "function"
				},
				{
					"constant": true,
					"inputs": [
						{
							"internalType": "address",
							"name": "investor",
							"type": "address"
						}
					],
					"name": "equity_in_usd",
					"outputs": [
						{
							"internalType": "uint256",
							"name": "",
							"type": "uint256"
						}
					],
					"payable": false,
					"stateMutability": "view",
					"type": "function"
				},
				{
					"constant": true,
					"inputs": [],
					"name": "purchase",
					"outputs": [
						{
							"internalType": "uint256",
							"name": "",
							"type": "uint256"
						}
					],
					"payable": false,
					"stateMutability": "view",
					"type": "function"
				},
				{
					"constant": false,
					"inputs": [
						{
							"internalType": "address",
							"name": "investor",
							"type": "address"
						},
						{
							"internalType": "uint256",
							"name": "hadcoins_sold",
							"type": "uint256"
						}
					],
					"name": "sell_hadcoins",
					"outputs": [],
					"payable": false,
					"stateMutability": "nonpayable",
					"type": "function"
				},
				{
					"constant": true,
					"inputs": [],
					"name": "totalRepublicCredit",
					"outputs": [
						{
							"internalType": "uint256",
							"name": "",
							"type": "uint256"
						}
					],
					"payable": false,
					"stateMutability": "view",
					"type": "function"
				}
			],
			"devdoc": {
				"methods": {}
			},
			"evm": {
				"assembly": "    /* \"contracts/RepublicCredit.sol\":27:1350  contract hadcoin_ico {\r... */\n  mstore(0x40, 0x80)\n    /* \"contracts/RepublicCredit.sol\":95:102  1000000 */\n  0x0f4240\n    /* \"contracts/RepublicCredit.sol\":61:102  uint public totalRepublicCredit = 1000000 */\n  0x00\n  sstore\n    /* \"contracts/RepublicCredit.sol\":141:145  1000 */\n  0x03e8\n    /* \"contracts/RepublicCredit.sol\":109:145  uint public USDRepublicCredit = 1000 */\n  0x01\n  sstore\n    /* \"contracts/RepublicCredit.sol\":175:176  0 */\n  0x00\n    /* \"contracts/RepublicCredit.sol\":152:176  uint public purchase = 0 */\n  0x02\n  sstore\n    /* \"contracts/RepublicCredit.sol\":27:1350  contract hadcoin_ico {\r... */\n  callvalue\n    /* \"--CODEGEN--\":8:17   */\n  dup1\n    /* \"--CODEGEN--\":5:7   */\n  iszero\n  tag_1\n  jumpi\n    /* \"--CODEGEN--\":30:31   */\n  0x00\n    /* \"--CODEGEN--\":27:28   */\n  dup1\n    /* \"--CODEGEN--\":20:32   */\n  revert\n    /* \"--CODEGEN--\":5:7   */\ntag_1:\n    /* \"contracts/RepublicCredit.sol\":27:1350  contract hadcoin_ico {\r... */\n  pop\n  dataSize(sub_0)\n  dup1\n  dataOffset(sub_0)\n  0x00\n  codecopy\n  0x00\n  return\nstop\n\nsub_0: assembly {\n        /* \"contracts/RepublicCredit.sol\":27:1350  contract hadcoin_ico {\r... */\n      mstore(0x40, 0x80)\n      callvalue\n        /* \"--CODEGEN--\":8:17   */\n      dup1\n        /* \"--CODEGEN--\":5:7   */\n      iszero\n      tag_1\n      jumpi\n        /* \"--CODEGEN--\":30:31   */\n      0x00\n        /* \"--CODEGEN--\":27:28   */\n      dup1\n        /* \"--CODEGEN--\":20:32   */\n      revert\n        /* \"--CODEGEN--\":5:7   */\n    tag_1:\n        /* \"contracts/RepublicCredit.sol\":27:1350  contract hadcoin_ico {\r... */\n      pop\n      jumpi(tag_2, lt(calldatasize, 0x04))\n      shr(0xe0, calldataload(0x00))\n      dup1\n      0x92088770\n      gt\n      tag_10\n      jumpi\n      dup1\n      0x92088770\n      eq\n      tag_6\n      jumpi\n      dup1\n      0x93388920\n      eq\n      tag_7\n      jumpi\n      dup1\n      0xe75a94d0\n      eq\n      tag_8\n      jumpi\n      dup1\n      0xe9052574\n      eq\n      tag_9\n      jumpi\n      jump(tag_2)\n    tag_10:\n      dup1\n      0x10c51c1b\n      eq\n      tag_3\n      jumpi\n      dup1\n      0x5d34dc9a\n      eq\n      tag_4\n      jumpi\n      dup1\n      0x64edfbf0\n      eq\n      tag_5\n      jumpi\n    tag_2:\n      0x00\n      dup1\n      revert\n        /* \"contracts/RepublicCredit.sol\":583:705  function equity_in_usd(address investor) external view returns (uint){\r... */\n    tag_3:\n      tag_11\n      0x04\n      dup1\n      calldatasize\n      sub\n        /* \"--CODEGEN--\":13:15   */\n      0x20\n        /* \"--CODEGEN--\":8:11   */\n      dup2\n        /* \"--CODEGEN--\":5:16   */\n      lt\n        /* \"--CODEGEN--\":2:4   */\n      iszero\n      tag_12\n      jumpi\n        /* \"--CODEGEN--\":29:30   */\n      0x00\n        /* \"--CODEGEN--\":26:27   */\n      dup1\n        /* \"--CODEGEN--\":19:31   */\n      revert\n        /* \"--CODEGEN--\":2:4   */\n    tag_12:\n        /* \"contracts/RepublicCredit.sol\":583:705  function equity_in_usd(address investor) external view returns (uint){\r... */\n      dup2\n      add\n      swap1\n      dup1\n      dup1\n      calldataload\n      0xffffffffffffffffffffffffffffffffffffffff\n      and\n      swap1\n      0x20\n      add\n      swap1\n      swap3\n      swap2\n      swap1\n      pop\n      pop\n      pop\n      tag_13\n      jump\t// in\n    tag_11:\n      mload(0x40)\n      dup1\n      dup3\n      dup2\n      mstore\n      0x20\n      add\n      swap2\n      pop\n      pop\n      mload(0x40)\n      dup1\n      swap2\n      sub\n      swap1\n      return\n        /* \"contracts/RepublicCredit.sol\":61:102  uint public totalRepublicCredit = 1000000 */\n    tag_4:\n      tag_14\n      tag_15\n      jump\t// in\n    tag_14:\n      mload(0x40)\n      dup1\n      dup3\n      dup2\n      mstore\n      0x20\n      add\n      swap2\n      pop\n      pop\n      mload(0x40)\n      dup1\n      swap2\n      sub\n      swap1\n      return\n        /* \"contracts/RepublicCredit.sol\":152:176  uint public purchase = 0 */\n    tag_5:\n      tag_16\n      tag_17\n      jump\t// in\n    tag_16:\n      mload(0x40)\n      dup1\n      dup3\n      dup2\n      mstore\n      0x20\n      add\n      swap2\n      pop\n      pop\n      mload(0x40)\n      dup1\n      swap2\n      sub\n      swap1\n      return\n        /* \"contracts/RepublicCredit.sol\":717:1076  function buy_hadcoins(address investor,uint USDinvested) external  RepublicCreditBuy(USDinvested){\r... */\n    tag_6:\n      tag_18\n      0x04\n      dup1\n      calldatasize\n      sub\n        /* \"--CODEGEN--\":13:15   */\n      0x40\n        /* \"--CODEGEN--\":8:11   */\n      dup2\n        /* \"--CODEGEN--\":5:16   */\n      lt\n        /* \"--CODEGEN--\":2:4   */\n      iszero\n      tag_19\n      jumpi\n        /* \"--CODEGEN--\":29:30   */\n      0x00\n        /* \"--CODEGEN--\":26:27   */\n      dup1\n        /* \"--CODEGEN--\":19:31   */\n      revert\n        /* \"--CODEGEN--\":2:4   */\n    tag_19:\n        /* \"contracts/RepublicCredit.sol\":717:1076  function buy_hadcoins(address investor,uint USDinvested) external  RepublicCreditBuy(USDinvested){\r... */\n      dup2\n      add\n      swap1\n      dup1\n      dup1\n      calldataload\n      0xffffffffffffffffffffffffffffffffffffffff\n      and\n      swap1\n      0x20\n      add\n      swap1\n      swap3\n      swap2\n      swap1\n      dup1\n      calldataload\n      swap1\n      0x20\n      add\n      swap1\n      swap3\n      swap2\n      swap1\n      pop\n      pop\n      pop\n      tag_20\n      jump\t// in\n    tag_18:\n      stop\n        /* \"contracts/RepublicCredit.sol\":109:145  uint public USDRepublicCredit = 1000 */\n    tag_7:\n      tag_21\n      tag_22\n      jump\t// in\n    tag_21:\n      mload(0x40)\n      dup1\n      dup3\n      dup2\n      mstore\n      0x20\n      add\n      swap2\n      pop\n      pop\n      mload(0x40)\n      dup1\n      swap2\n      sub\n      swap1\n      return\n        /* \"contracts/RepublicCredit.sol\":455:571  function Equi(address investor) external view returns (uint){\r... */\n    tag_8:\n      tag_23\n      0x04\n      dup1\n      calldatasize\n      sub\n        /* \"--CODEGEN--\":13:15   */\n      0x20\n        /* \"--CODEGEN--\":8:11   */\n      dup2\n        /* \"--CODEGEN--\":5:16   */\n      lt\n        /* \"--CODEGEN--\":2:4   */\n      iszero\n      tag_24\n      jumpi\n        /* \"--CODEGEN--\":29:30   */\n      0x00\n        /* \"--CODEGEN--\":26:27   */\n      dup1\n        /* \"--CODEGEN--\":19:31   */\n      revert\n        /* \"--CODEGEN--\":2:4   */\n    tag_24:\n        /* \"contracts/RepublicCredit.sol\":455:571  function Equi(address investor) external view returns (uint){\r... */\n      dup2\n      add\n      swap1\n      dup1\n      dup1\n      calldataload\n      0xffffffffffffffffffffffffffffffffffffffff\n      and\n      swap1\n      0x20\n      add\n      swap1\n      swap3\n      swap2\n      swap1\n      pop\n      pop\n      pop\n      tag_25\n      jump\t// in\n    tag_23:\n      mload(0x40)\n      dup1\n      dup3\n      dup2\n      mstore\n      0x20\n      add\n      swap2\n      pop\n      pop\n      mload(0x40)\n      dup1\n      swap2\n      sub\n      swap1\n      return\n        /* \"contracts/RepublicCredit.sol\":1088:1338  function sell_hadcoins(address investor,uint hadcoins_sold) external {\r... */\n    tag_9:\n      tag_26\n      0x04\n      dup1\n      calldatasize\n      sub\n        /* \"--CODEGEN--\":13:15   */\n      0x40\n        /* \"--CODEGEN--\":8:11   */\n      dup2\n        /* \"--CODEGEN--\":5:16   */\n      lt\n        /* \"--CODEGEN--\":2:4   */\n      iszero\n      tag_27\n      jumpi\n        /* \"--CODEGEN--\":29:30   */\n      0x00\n        /* \"--CODEGEN--\":26:27   */\n      dup1\n        /* \"--CODEGEN--\":19:31   */\n      revert\n        /* \"--CODEGEN--\":2:4   */\n    tag_27:\n        /* \"contracts/RepublicCredit.sol\":1088:1338  function sell_hadcoins(address investor,uint hadcoins_sold) external {\r... */\n      dup2\n      add\n      swap1\n      dup1\n      dup1\n      calldataload\n      0xffffffffffffffffffffffffffffffffffffffff\n      and\n      swap1\n      0x20\n      add\n      swap1\n      swap3\n      swap2\n      swap1\n      dup1\n      calldataload\n      swap1\n      0x20\n      add\n      swap1\n      swap3\n      swap2\n      swap1\n      pop\n      pop\n      pop\n      tag_28\n      jump\t// in\n    tag_26:\n      stop\n        /* \"contracts/RepublicCredit.sol\":583:705  function equity_in_usd(address investor) external view returns (uint){\r... */\n    tag_13:\n        /* \"contracts/RepublicCredit.sol\":647:651  uint */\n      0x00\n        /* \"contracts/RepublicCredit.sol\":670:687  RepublicCreditUSD */\n      0x04\n        /* \"contracts/RepublicCredit.sol\":670:697  RepublicCreditUSD[investor] */\n      0x00\n        /* \"contracts/RepublicCredit.sol\":688:696  investor */\n      dup4\n        /* \"contracts/RepublicCredit.sol\":670:697  RepublicCreditUSD[investor] */\n      0xffffffffffffffffffffffffffffffffffffffff\n      and\n      0xffffffffffffffffffffffffffffffffffffffff\n      and\n      dup2\n      mstore\n      0x20\n      add\n      swap1\n      dup2\n      mstore\n      0x20\n      add\n      0x00\n      keccak256\n      sload\n        /* \"contracts/RepublicCredit.sol\":663:697  return RepublicCreditUSD[investor] */\n      swap1\n      pop\n        /* \"contracts/RepublicCredit.sol\":583:705  function equity_in_usd(address investor) external view returns (uint){\r... */\n      swap2\n      swap1\n      pop\n      jump\t// out\n        /* \"contracts/RepublicCredit.sol\":61:102  uint public totalRepublicCredit = 1000000 */\n    tag_15:\n      sload(0x00)\n      dup2\n      jump\t// out\n        /* \"contracts/RepublicCredit.sol\":152:176  uint public purchase = 0 */\n    tag_17:\n      sload(0x02)\n      dup2\n      jump\t// out\n        /* \"contracts/RepublicCredit.sol\":717:1076  function buy_hadcoins(address investor,uint USDinvested) external  RepublicCreditBuy(USDinvested){\r... */\n    tag_20:\n        /* \"contracts/RepublicCredit.sol\":802:813  USDinvested */\n      dup1\n        /* \"contracts/RepublicCredit.sol\":402:421  totalRepublicCredit */\n      sload(0x00)\n        /* \"contracts/RepublicCredit.sol\":390:398  purchase */\n      sload(0x02)\n        /* \"contracts/RepublicCredit.sol\":370:387  USDRepublicCredit */\n      sload(0x01)\n        /* \"contracts/RepublicCredit.sol\":355:366  USDinvested */\n      dup4\n        /* \"contracts/RepublicCredit.sol\":355:387  USDinvested  * USDRepublicCredit */\n      mul\n        /* \"contracts/RepublicCredit.sol\":355:398  USDinvested  * USDRepublicCredit + purchase */\n      add\n        /* \"contracts/RepublicCredit.sol\":355:421  USDinvested  * USDRepublicCredit + purchase <= totalRepublicCredit */\n      gt\n      iszero\n        /* \"contracts/RepublicCredit.sol\":347:423  require(USDinvested  * USDRepublicCredit + purchase <= totalRepublicCredit ) */\n      tag_31\n      jumpi\n      0x00\n      dup1\n      revert\n    tag_31:\n        /* \"contracts/RepublicCredit.sol\":825:846  uint  hadcoins_bought */\n      0x00\n        /* \"contracts/RepublicCredit.sol\":862:879  USDRepublicCredit */\n      sload(0x01)\n        /* \"contracts/RepublicCredit.sol\":849:860  USDinvested */\n      dup4\n        /* \"contracts/RepublicCredit.sol\":849:879  USDinvested *USDRepublicCredit */\n      mul\n        /* \"contracts/RepublicCredit.sol\":825:879  uint  hadcoins_bought = USDinvested *USDRepublicCredit */\n      swap1\n      pop\n        /* \"contracts/RepublicCredit.sol\":924:939  hadcoins_bought */\n      dup1\n        /* \"contracts/RepublicCredit.sol\":890:910  RepublicCreditEquity */\n      0x03\n        /* \"contracts/RepublicCredit.sol\":890:920  RepublicCreditEquity[investor] */\n      0x00\n        /* \"contracts/RepublicCredit.sol\":911:919  investor */\n      dup7\n        /* \"contracts/RepublicCredit.sol\":890:920  RepublicCreditEquity[investor] */\n      0xffffffffffffffffffffffffffffffffffffffff\n      and\n      0xffffffffffffffffffffffffffffffffffffffff\n      and\n      dup2\n      mstore\n      0x20\n      add\n      swap1\n      dup2\n      mstore\n      0x20\n      add\n      0x00\n      keccak256\n      0x00\n        /* \"contracts/RepublicCredit.sol\":890:939  RepublicCreditEquity[investor] += hadcoins_bought */\n      dup3\n      dup3\n      sload\n      add\n      swap3\n      pop\n      pop\n      dup2\n      swap1\n      sstore\n      pop\n        /* \"contracts/RepublicCredit.sol\":1013:1030  USDRepublicCredit */\n      sload(0x01)\n        /* \"contracts/RepublicCredit.sol\":980:1000  RepublicCreditEquity */\n      0x03\n        /* \"contracts/RepublicCredit.sol\":980:1010  RepublicCreditEquity[investor] */\n      0x00\n        /* \"contracts/RepublicCredit.sol\":1001:1009  investor */\n      dup7\n        /* \"contracts/RepublicCredit.sol\":980:1010  RepublicCreditEquity[investor] */\n      0xffffffffffffffffffffffffffffffffffffffff\n      and\n      0xffffffffffffffffffffffffffffffffffffffff\n      and\n      dup2\n      mstore\n      0x20\n      add\n      swap1\n      dup2\n      mstore\n      0x20\n      add\n      0x00\n      keccak256\n      sload\n        /* \"contracts/RepublicCredit.sol\":980:1030  RepublicCreditEquity[investor] / USDRepublicCredit */\n      dup2\n      tag_33\n      jumpi\n      invalid\n    tag_33:\n      div\n        /* \"contracts/RepublicCredit.sol\":950:967  RepublicCreditUSD */\n      0x04\n        /* \"contracts/RepublicCredit.sol\":950:977  RepublicCreditUSD[investor] */\n      0x00\n        /* \"contracts/RepublicCredit.sol\":968:976  investor */\n      dup7\n        /* \"contracts/RepublicCredit.sol\":950:977  RepublicCreditUSD[investor] */\n      0xffffffffffffffffffffffffffffffffffffffff\n      and\n      0xffffffffffffffffffffffffffffffffffffffff\n      and\n      dup2\n      mstore\n      0x20\n      add\n      swap1\n      dup2\n      mstore\n      0x20\n      add\n      0x00\n      keccak256\n        /* \"contracts/RepublicCredit.sol\":950:1030  RepublicCreditUSD[investor] = RepublicCreditEquity[investor] / USDRepublicCredit */\n      dup2\n      swap1\n      sstore\n      pop\n        /* \"contracts/RepublicCredit.sol\":1053:1068  hadcoins_bought */\n      dup1\n        /* \"contracts/RepublicCredit.sol\":1041:1049  purchase */\n      0x02\n      0x00\n        /* \"contracts/RepublicCredit.sol\":1041:1068  purchase += hadcoins_bought */\n      dup3\n      dup3\n      sload\n      add\n      swap3\n      pop\n      pop\n      dup2\n      swap1\n      sstore\n      pop\n        /* \"contracts/RepublicCredit.sol\":434:435  _ */\n      pop\n        /* \"contracts/RepublicCredit.sol\":717:1076  function buy_hadcoins(address investor,uint USDinvested) external  RepublicCreditBuy(USDinvested){\r... */\n      pop\n      pop\n      pop\n      jump\t// out\n        /* \"contracts/RepublicCredit.sol\":109:145  uint public USDRepublicCredit = 1000 */\n    tag_22:\n      sload(0x01)\n      dup2\n      jump\t// out\n        /* \"contracts/RepublicCredit.sol\":455:571  function Equi(address investor) external view returns (uint){\r... */\n    tag_25:\n        /* \"contracts/RepublicCredit.sol\":510:514  uint */\n      0x00\n        /* \"contracts/RepublicCredit.sol\":533:553  RepublicCreditEquity */\n      0x03\n        /* \"contracts/RepublicCredit.sol\":533:563  RepublicCreditEquity[investor] */\n      0x00\n        /* \"contracts/RepublicCredit.sol\":554:562  investor */\n      dup4\n        /* \"contracts/RepublicCredit.sol\":533:563  RepublicCreditEquity[investor] */\n      0xffffffffffffffffffffffffffffffffffffffff\n      and\n      0xffffffffffffffffffffffffffffffffffffffff\n      and\n      dup2\n      mstore\n      0x20\n      add\n      swap1\n      dup2\n      mstore\n      0x20\n      add\n      0x00\n      keccak256\n      sload\n        /* \"contracts/RepublicCredit.sol\":526:563  return RepublicCreditEquity[investor] */\n      swap1\n      pop\n        /* \"contracts/RepublicCredit.sol\":455:571  function Equi(address investor) external view returns (uint){\r... */\n      swap2\n      swap1\n      pop\n      jump\t// out\n        /* \"contracts/RepublicCredit.sol\":1088:1338  function sell_hadcoins(address investor,uint hadcoins_sold) external {\r... */\n    tag_28:\n        /* \"contracts/RepublicCredit.sol\":1202:1215  hadcoins_sold */\n      dup1\n        /* \"contracts/RepublicCredit.sol\":1168:1188  RepublicCreditEquity */\n      0x03\n        /* \"contracts/RepublicCredit.sol\":1168:1198  RepublicCreditEquity[investor] */\n      0x00\n        /* \"contracts/RepublicCredit.sol\":1189:1197  investor */\n      dup5\n        /* \"contracts/RepublicCredit.sol\":1168:1198  RepublicCreditEquity[investor] */\n      0xffffffffffffffffffffffffffffffffffffffff\n      and\n      0xffffffffffffffffffffffffffffffffffffffff\n      and\n      dup2\n      mstore\n      0x20\n      add\n      swap1\n      dup2\n      mstore\n      0x20\n      add\n      0x00\n      keccak256\n      0x00\n        /* \"contracts/RepublicCredit.sol\":1168:1215  RepublicCreditEquity[investor] -= hadcoins_sold */\n      dup3\n      dup3\n      sload\n      sub\n      swap3\n      pop\n      pop\n      dup2\n      swap1\n      sstore\n      pop\n        /* \"contracts/RepublicCredit.sol\":1289:1293  1000 */\n      0x03e8\n        /* \"contracts/RepublicCredit.sol\":1256:1276  RepublicCreditEquity */\n      0x03\n        /* \"contracts/RepublicCredit.sol\":1256:1286  RepublicCreditEquity[investor] */\n      0x00\n        /* \"contracts/RepublicCredit.sol\":1277:1285  investor */\n      dup5\n        /* \"contracts/RepublicCredit.sol\":1256:1286  RepublicCreditEquity[investor] */\n      0xffffffffffffffffffffffffffffffffffffffff\n      and\n      0xffffffffffffffffffffffffffffffffffffffff\n      and\n      dup2\n      mstore\n      0x20\n      add\n      swap1\n      dup2\n      mstore\n      0x20\n      add\n      0x00\n      keccak256\n      sload\n        /* \"contracts/RepublicCredit.sol\":1256:1293  RepublicCreditEquity[investor] / 1000 */\n      dup2\n      tag_36\n      jumpi\n      invalid\n    tag_36:\n      div\n        /* \"contracts/RepublicCredit.sol\":1226:1243  RepublicCreditUSD */\n      0x04\n        /* \"contracts/RepublicCredit.sol\":1226:1253  RepublicCreditUSD[investor] */\n      0x00\n        /* \"contracts/RepublicCredit.sol\":1244:1252  investor */\n      dup5\n        /* \"contracts/RepublicCredit.sol\":1226:1253  RepublicCreditUSD[investor] */\n      0xffffffffffffffffffffffffffffffffffffffff\n      and\n      0xffffffffffffffffffffffffffffffffffffffff\n      and\n      dup2\n      mstore\n      0x20\n      add\n      swap1\n      dup2\n      mstore\n      0x20\n      add\n      0x00\n      keccak256\n        /* \"contracts/RepublicCredit.sol\":1226:1293  RepublicCreditUSD[investor] = RepublicCreditEquity[investor] / 1000 */\n      dup2\n      swap1\n      sstore\n      pop\n        /* \"contracts/RepublicCredit.sol\":1316:1329  hadcoins_sold */\n      dup1\n        /* \"contracts/RepublicCredit.sol\":1304:1312  purchase */\n      0x02\n      0x00\n        /* \"contracts/RepublicCredit.sol\":1304:1329  purchase -= hadcoins_sold */\n      dup3\n      dup3\n      sload\n      sub\n      swap3\n      pop\n      pop\n      dup2\n      swap1\n      sstore\n      pop\n        /* \"contracts/RepublicCredit.sol\":1088:1338  function sell_hadcoins(address investor,uint hadcoins_sold) external {\r... */\n      pop\n      pop\n      jump\t// out\n\n    auxdata: 0xa265627a7a72315820afa7bacb140f90cc51727920898efed0af71c026f3465576b655e0940b7bc44164736f6c63430005110032\n}\n",
				"bytecode": {
					"linkReferences": {},
					"object": "6080604052620f42406000556103e8600155600060025534801561002257600080fd5b50610502806100326000396000f3fe608060405234801561001057600080fd5b506004361061007d5760003560e01c8063920887701161005b57806392088770146101165780639338892014610164578063e75a94d014610182578063e9052574146101da5761007d565b806310c51c1b146100825780635d34dc9a146100da57806364edfbf0146100f8575b600080fd5b6100c46004803603602081101561009857600080fd5b81019080803573ffffffffffffffffffffffffffffffffffffffff169060200190929190505050610228565b6040518082815260200191505060405180910390f35b6100e2610271565b6040518082815260200191505060405180910390f35b610100610277565b6040518082815260200191505060405180910390f35b6101626004803603604081101561012c57600080fd5b81019080803573ffffffffffffffffffffffffffffffffffffffff1690602001909291908035906020019092919050505061027d565b005b61016c61038f565b6040518082815260200191505060405180910390f35b6101c46004803603602081101561019857600080fd5b81019080803573ffffffffffffffffffffffffffffffffffffffff169060200190929190505050610395565b6040518082815260200191505060405180910390f35b610226600480360360408110156101f057600080fd5b81019080803573ffffffffffffffffffffffffffffffffffffffff169060200190929190803590602001909291905050506103de565b005b6000600460008373ffffffffffffffffffffffffffffffffffffffff1673ffffffffffffffffffffffffffffffffffffffff168152602001908152602001600020549050919050565b60005481565b60025481565b80600054600254600154830201111561029557600080fd5b60006001548302905080600360008673ffffffffffffffffffffffffffffffffffffffff1673ffffffffffffffffffffffffffffffffffffffff16815260200190815260200160002060008282540192505081905550600154600360008673ffffffffffffffffffffffffffffffffffffffff1673ffffffffffffffffffffffffffffffffffffffff168152602001908152602001600020548161033557fe5b04600460008673ffffffffffffffffffffffffffffffffffffffff1673ffffffffffffffffffffffffffffffffffffffff168152602001908152602001600020819055508060026000828254019250508190555050505050565b60015481565b6000600360008373ffffffffffffffffffffffffffffffffffffffff1673ffffffffffffffffffffffffffffffffffffffff168152602001908152602001600020549050919050565b80600360008473ffffffffffffffffffffffffffffffffffffffff1673ffffffffffffffffffffffffffffffffffffffff168152602001908152602001600020600082825403925050819055506103e8600360008473ffffffffffffffffffffffffffffffffffffffff1673ffffffffffffffffffffffffffffffffffffffff168152602001908152602001600020548161047557fe5b04600460008473ffffffffffffffffffffffffffffffffffffffff1673ffffffffffffffffffffffffffffffffffffffff1681526020019081526020016000208190555080600260008282540392505081905550505056fea265627a7a72315820afa7bacb140f90cc51727920898efed0af71c026f3465576b655e0940b7bc44164736f6c63430005110032",
					"opcodes": "PUSH1 0x80 PUSH1 0x40 MSTORE PUSH3 0xF4240 PUSH1 0x0 SSTORE PUSH2 0x3E8 PUSH1 0x1 SSTORE PUSH1 0x0 PUSH1 0x2 SSTORE CALLVALUE DUP1 ISZERO PUSH2 0x22 JUMPI PUSH1 0x0 DUP1 REVERT JUMPDEST POP PUSH2 0x502 DUP1 PUSH2 0x32 PUSH1 0x0 CODECOPY PUSH1 0x0 RETURN INVALID PUSH1 0x80 PUSH1 0x40 MSTORE CALLVALUE DUP1 ISZERO PUSH2 0x10 JUMPI PUSH1 0x0 DUP1 REVERT JUMPDEST POP PUSH1 0x4 CALLDATASIZE LT PUSH2 0x7D JUMPI PUSH1 0x0 CALLDATALOAD PUSH1 0xE0 SHR DUP1 PUSH4 0x92088770 GT PUSH2 0x5B JUMPI DUP1 PUSH4 0x92088770 EQ PUSH2 0x116 JUMPI DUP1 PUSH4 0x93388920 EQ PUSH2 0x164 JUMPI DUP1 PUSH4 0xE75A94D0 EQ PUSH2 0x182 JUMPI DUP1 PUSH4 0xE9052574 EQ PUSH2 0x1DA JUMPI PUSH2 0x7D JUMP JUMPDEST DUP1 PUSH4 0x10C51C1B EQ PUSH2 0x82 JUMPI DUP1 PUSH4 0x5D34DC9A EQ PUSH2 0xDA JUMPI DUP1 PUSH4 0x64EDFBF0 EQ PUSH2 0xF8 JUMPI JUMPDEST PUSH1 0x0 DUP1 REVERT JUMPDEST PUSH2 0xC4 PUSH1 0x4 DUP1 CALLDATASIZE SUB PUSH1 0x20 DUP2 LT ISZERO PUSH2 0x98 JUMPI PUSH1 0x0 DUP1 REVERT JUMPDEST DUP2 ADD SWAP1 DUP1 DUP1 CALLDATALOAD PUSH20 0xFFFFFFFFFFFFFFFFFFFFFFFFFFFFFFFFFFFFFFFF AND SWAP1 PUSH1 0x20 ADD SWAP1 SWAP3 SWAP2 SWAP1 POP POP POP PUSH2 0x228 JUMP JUMPDEST PUSH1 0x40 MLOAD DUP1 DUP3 DUP2 MSTORE PUSH1 0x20 ADD SWAP2 POP POP PUSH1 0x40 MLOAD DUP1 SWAP2 SUB SWAP1 RETURN JUMPDEST PUSH2 0xE2 PUSH2 0x271 JUMP JUMPDEST PUSH1 0x40 MLOAD DUP1 DUP3 DUP2 MSTORE PUSH1 0x20 ADD SWAP2 POP POP PUSH1 0x40 MLOAD DUP1 SWAP2 SUB SWAP1 RETURN JUMPDEST PUSH2 0x100 PUSH2 0x277 JUMP JUMPDEST PUSH1 0x40 MLOAD DUP1 DUP3 DUP2 MSTORE PUSH1 0x20 ADD SWAP2 POP POP PUSH1 0x40 MLOAD DUP1 SWAP2 SUB SWAP1 RETURN JUMPDEST PUSH2 0x162 PUSH1 0x4 DUP1 CALLDATASIZE SUB PUSH1 0x40 DUP2 LT ISZERO PUSH2 0x12C JUMPI PUSH1 0x0 DUP1 REVERT JUMPDEST DUP2 ADD SWAP1 DUP1 DUP1 CALLDATALOAD PUSH20 0xFFFFFFFFFFFFFFFFFFFFFFFFFFFFFFFFFFFFFFFF AND SWAP1 PUSH1 0x20 ADD SWAP1 SWAP3 SWAP2 SWAP1 DUP1 CALLDATALOAD SWAP1 PUSH1 0x20 ADD SWAP1 SWAP3 SWAP2 SWAP1 POP POP POP PUSH2 0x27D JUMP JUMPDEST STOP JUMPDEST PUSH2 0x16C PUSH2 0x38F JUMP JUMPDEST PUSH1 0x40 MLOAD DUP1 DUP3 DUP2 MSTORE PUSH1 0x20 ADD SWAP2 POP POP PUSH1 0x40 MLOAD DUP1 SWAP2 SUB SWAP1 RETURN JUMPDEST PUSH2 0x1C4 PUSH1 0x4 DUP1 CALLDATASIZE SUB PUSH1 0x20 DUP2 LT ISZERO PUSH2 0x198 JUMPI PUSH1 0x0 DUP1 REVERT JUMPDEST DUP2 ADD SWAP1 DUP1 DUP1 CALLDATALOAD PUSH20 0xFFFFFFFFFFFFFFFFFFFFFFFFFFFFFFFFFFFFFFFF AND SWAP1 PUSH1 0x20 ADD SWAP1 SWAP3 SWAP2 SWAP1 POP POP POP PUSH2 0x395 JUMP JUMPDEST PUSH1 0x40 MLOAD DUP1 DUP3 DUP2 MSTORE PUSH1 0x20 ADD SWAP2 POP POP PUSH1 0x40 MLOAD DUP1 SWAP2 SUB SWAP1 RETURN JUMPDEST PUSH2 0x226 PUSH1 0x4 DUP1 CALLDATASIZE SUB PUSH1 0x40 DUP2 LT ISZERO PUSH2 0x1F0 JUMPI PUSH1 0x0 DUP1 REVERT JUMPDEST DUP2 ADD SWAP1 DUP1 DUP1 CALLDATALOAD PUSH20 0xFFFFFFFFFFFFFFFFFFFFFFFFFFFFFFFFFFFFFFFF AND SWAP1 PUSH1 0x20 ADD SWAP1 SWAP3 SWAP2 SWAP1 DUP1 CALLDATALOAD SWAP1 PUSH1 0x20 ADD SWAP1 SWAP3 SWAP2 SWAP1 POP POP POP PUSH2 0x3DE JUMP JUMPDEST STOP JUMPDEST PUSH1 0x0 PUSH1 0x4 PUSH1 0x0 DUP4 PUSH20 0xFFFFFFFFFFFFFFFFFFFFFFFFFFFFFFFFFFFFFFFF AND PUSH20 0xFFFFFFFFFFFFFFFFFFFFFFFFFFFFFFFFFFFFFFFF AND DUP2 MSTORE PUSH1 0x20 ADD SWAP1 DUP2 MSTORE PUSH1 0x20 ADD PUSH1 0x0 KECCAK256 SLOAD SWAP1 POP SWAP2 SWAP1 POP JUMP JUMPDEST PUSH1 0x0 SLOAD DUP2 JUMP JUMPDEST PUSH1 0x2 SLOAD DUP2 JUMP JUMPDEST DUP1 PUSH1 0x0 SLOAD PUSH1 0x2 SLOAD PUSH1 0x1 SLOAD DUP4 MUL ADD GT ISZERO PUSH2 0x295 JUMPI PUSH1 0x0 DUP1 REVERT JUMPDEST PUSH1 0x0 PUSH1 0x1 SLOAD DUP4 MUL SWAP1 POP DUP1 PUSH1 0x3 PUSH1 0x0 DUP7 PUSH20 0xFFFFFFFFFFFFFFFFFFFFFFFFFFFFFFFFFFFFFFFF AND PUSH20 0xFFFFFFFFFFFFFFFFFFFFFFFFFFFFFFFFFFFFFFFF AND DUP2 MSTORE PUSH1 0x20 ADD SWAP1 DUP2 MSTORE PUSH1 0x20 ADD PUSH1 0x0 KECCAK256 PUSH1 0x0 DUP3 DUP3 SLOAD ADD SWAP3 POP POP DUP2 SWAP1 SSTORE POP PUSH1 0x1 SLOAD PUSH1 0x3 PUSH1 0x0 DUP7 PUSH20 0xFFFFFFFFFFFFFFFFFFFFFFFFFFFFFFFFFFFFFFFF AND PUSH20 0xFFFFFFFFFFFFFFFFFFFFFFFFFFFFFFFFFFFFFFFF AND DUP2 MSTORE PUSH1 0x20 ADD SWAP1 DUP2 MSTORE PUSH1 0x20 ADD PUSH1 0x0 KECCAK256 SLOAD DUP2 PUSH2 0x335 JUMPI INVALID JUMPDEST DIV PUSH1 0x4 PUSH1 0x0 DUP7 PUSH20 0xFFFFFFFFFFFFFFFFFFFFFFFFFFFFFFFFFFFFFFFF AND PUSH20 0xFFFFFFFFFFFFFFFFFFFFFFFFFFFFFFFFFFFFFFFF AND DUP2 MSTORE PUSH1 0x20 ADD SWAP1 DUP2 MSTORE PUSH1 0x20 ADD PUSH1 0x0 KECCAK256 DUP2 SWAP1 SSTORE POP DUP1 PUSH1 0x2 PUSH1 0x0 DUP3 DUP3 SLOAD ADD SWAP3 POP POP DUP2 SWAP1 SSTORE POP POP POP POP POP JUMP JUMPDEST PUSH1 0x1 SLOAD DUP2 JUMP JUMPDEST PUSH1 0x0 PUSH1 0x3 PUSH1 0x0 DUP4 PUSH20 0xFFFFFFFFFFFFFFFFFFFFFFFFFFFFFFFFFFFFFFFF AND PUSH20 0xFFFFFFFFFFFFFFFFFFFFFFFFFFFFFFFFFFFFFFFF AND DUP2 MSTORE PUSH1 0x20 ADD SWAP1 DUP2 MSTORE PUSH1 0x20 ADD PUSH1 0x0 KECCAK256 SLOAD SWAP1 POP SWAP2 SWAP1 POP JUMP JUMPDEST DUP1 PUSH1 0x3 PUSH1 0x0 DUP5 PUSH20 0xFFFFFFFFFFFFFFFFFFFFFFFFFFFFFFFFFFFFFFFF AND PUSH20 0xFFFFFFFFFFFFFFFFFFFFFFFFFFFFFFFFFFFFFFFF AND DUP2 MSTORE PUSH1 0x20 ADD SWAP1 DUP2 MSTORE PUSH1 0x20 ADD PUSH1 0x0 KECCAK256 PUSH1 0x0 DUP3 DUP3 SLOAD SUB SWAP3 POP POP DUP2 SWAP1 SSTORE POP PUSH2 0x3E8 PUSH1 0x3 PUSH1 0x0 DUP5 PUSH20 0xFFFFFFFFFFFFFFFFFFFFFFFFFFFFFFFFFFFFFFFF AND PUSH20 0xFFFFFFFFFFFFFFFFFFFFFFFFFFFFFFFFFFFFFFFF AND DUP2 MSTORE PUSH1 0x20 ADD SWAP1 DUP2 MSTORE PUSH1 0x20 ADD PUSH1 0x0 KECCAK256 SLOAD DUP2 PUSH2 0x475 JUMPI INVALID JUMPDEST DIV PUSH1 0x4 PUSH1 0x0 DUP5 PUSH20 0xFFFFFFFFFFFFFFFFFFFFFFFFFFFFFFFFFFFFFFFF AND PUSH20 0xFFFFFFFFFFFFFFFFFFFFFFFFFFFFFFFFFFFFFFFF AND DUP2 MSTORE PUSH1 0x20 ADD SWAP1 DUP2 MSTORE PUSH1 0x20 ADD PUSH1 0x0 KECCAK256 DUP2 SWAP1 SSTORE POP DUP1 PUSH1 0x2 PUSH1 0x0 DUP3 DUP3 SLOAD SUB SWAP3 POP POP DUP2 SWAP1 SSTORE POP POP POP JUMP INVALID LOG2 PUSH6 0x627A7A723158 KECCAK256 0xAF 0xA7 0xBA 0xCB EQ 0xF SWAP1 0xCC MLOAD PUSH19 0x7920898EFED0AF71C026F3465576B655E0940B PUSH28 0xC44164736F6C63430005110032000000000000000000000000000000 "
				},
				"gasEstimates": {
					"creation": {
						"codeDepositCost": "256400",
						"executionCost": "45318",
						"totalCost": "301718"
					},
					"external": {
						"Equi(address)": "1240",
						"USDRepublicCredit()": "1027",
						"buy_hadcoins(address,uint256)": "67104",
						"equity_in_usd(address)": "1197",
						"purchase()": "1050",
						"sell_hadcoins(address,uint256)": "63104",
						"totalRepublicCredit()": "1028"
					}
				},
				"methodIdentifiers": {
					"Equi(address)": "e75a94d0",
					"USDRepublicCredit()": "93388920",
					"buy_hadcoins(address,uint256)": "92088770",
					"equity_in_usd(address)": "10c51c1b",
					"purchase()": "64edfbf0",
					"sell_hadcoins(address,uint256)": "e9052574",
					"totalRepublicCredit()": "5d34dc9a"
				}
			},
			"storageLayout": {
				"storage": [
					{
						"astId": 4,
						"contract": "contracts/RepublicCredit.sol:hadcoin_ico",
						"label": "totalRepublicCredit",
						"offset": 0,
						"slot": "0",
						"type": "t_uint256"
					},
					{
						"astId": 7,
						"contract": "contracts/RepublicCredit.sol:hadcoin_ico",
						"label": "USDRepublicCredit",
						"offset": 0,
						"slot": "1",
						"type": "t_uint256"
					},
					{
						"astId": 10,
						"contract": "contracts/RepublicCredit.sol:hadcoin_ico",
						"label": "purchase",
						"offset": 0,
						"slot": "2",
						"type": "t_uint256"
					},
					{
						"astId": 14,
						"contract": "contracts/RepublicCredit.sol:hadcoin_ico",
						"label": "RepublicCreditEquity",
						"offset": 0,
						"slot": "3",
						"type": "t_mapping(t_address,t_uint256)"
					},
					{
						"astId": 18,
						"contract": "contracts/RepublicCredit.sol:hadcoin_ico",
						"label": "RepublicCreditUSD",
						"offset": 0,
						"slot": "4",
						"type": "t_mapping(t_address,t_uint256)"
					}
				],
				"types": {
					"t_address": {
						"encoding": "inplace",
						"label": "address",
						"numberOfBytes": "20"
					},
					"t_mapping(t_address,t_uint256)": {
						"encoding": "mapping",
						"key": "t_address",
						"label": "mapping(address => uint256)",
						"numberOfBytes": "32",
						"value": "t_uint256"
					},
					"t_uint256": {
						"encoding": "inplace",
						"label": "uint256",
						"numberOfBytes": "32"
					}
				}
			},
			"userdoc": {
				"methods": {}
			}
		}
	}
}