{
	"data": {
		"bytecode": {
			"linkReferences": {},
			"object": "6080604052620f42406000556103e8600155600060025534801561002257600080fd5b50610713806100326000396000f3fe608060405234801561001057600080fd5b506004361061007d5760003560e01c8063813b34a61161005b578063813b34a6146100ee578063933889201461011e578063bb0462491461013c578063e1d5de44146101585761007d565b806310c51c1b1461008257806349c15bd9146100b25780637ebc31bf146100d0575b600080fd5b61009c600480360381019061009791906104bf565b610174565b6040516100a99190610505565b60405180910390f35b6100ba6101bd565b6040516100c79190610505565b60405180910390f35b6100d86101c3565b6040516100e59190610505565b60405180910390f35b610108600480360381019061010391906104bf565b6101c9565b6040516101159190610505565b60405180910390f35b610126610212565b6040516101339190610505565b60405180910390f35b6101566004803603810190610151919061054c565b610218565b005b610172600480360381019061016d919061054c565b610359565b005b6000600460008373ffffffffffffffffffffffffffffffffffffffff1673ffffffffffffffffffffffffffffffffffffffff168152602001908152602001600020549050919050565b60025481565b60005481565b6000600360008373ffffffffffffffffffffffffffffffffffffffff1673ffffffffffffffffffffffffffffffffffffffff168152602001908152602001600020549050919050565b60015481565b806000546002546001548361022d91906105bb565b6102379190610615565b111561024257600080fd5b60006001548361025291906105bb565b905080600360008673ffffffffffffffffffffffffffffffffffffffff1673ffffffffffffffffffffffffffffffffffffffff16815260200190815260200160002060008282546102a39190610615565b92505081905550600154600360008673ffffffffffffffffffffffffffffffffffffffff1673ffffffffffffffffffffffffffffffffffffffff168152602001908152602001600020546102f79190610678565b600460008673ffffffffffffffffffffffffffffffffffffffff1673ffffffffffffffffffffffffffffffffffffffff16815260200190815260200160002081905550806002600082825461034c9190610615565b9250508190555050505050565b80600360008473ffffffffffffffffffffffffffffffffffffffff1673ffffffffffffffffffffffffffffffffffffffff16815260200190815260200160002060008282546103a891906106a9565b925050819055506103e8600360008473ffffffffffffffffffffffffffffffffffffffff1673ffffffffffffffffffffffffffffffffffffffff168152602001908152602001600020546103fc9190610678565b600460008473ffffffffffffffffffffffffffffffffffffffff1673ffffffffffffffffffffffffffffffffffffffff16815260200190815260200160002081905550806002600082825461045191906106a9565b925050819055505050565b600080fd5b600073ffffffffffffffffffffffffffffffffffffffff82169050919050565b600061048c82610461565b9050919050565b61049c81610481565b81146104a757600080fd5b50565b6000813590506104b981610493565b92915050565b6000602082840312156104d5576104d461045c565b5b60006104e3848285016104aa565b91505092915050565b6000819050919050565b6104ff816104ec565b82525050565b600060208201905061051a60008301846104f6565b92915050565b610529816104ec565b811461053457600080fd5b50565b60008135905061054681610520565b92915050565b600080604083850312156105635761056261045c565b5b6000610571858286016104aa565b925050602061058285828601610537565b9150509250929050565b7f4e487b7100000000000000000000000000000000000000000000000000000000600052601160045260246000fd5b60006105c6826104ec565b91506105d1836104ec565b9250817fffffffffffffffffffffffffffffffffffffffffffffffffffffffffffffffff048311821515161561060a5761060961058c565b5b828202905092915050565b6000610620826104ec565b915061062b836104ec565b92508282019050808211156106435761064261058c565b5b92915050565b7f4e487b7100000000000000000000000000000000000000000000000000000000600052601260045260246000fd5b6000610683826104ec565b915061068e836104ec565b92508261069e5761069d610649565b5b828204905092915050565b60006106b4826104ec565b91506106bf836104ec565b92508282039050818111156106d7576106d661058c565b5b9291505056fea26469706673582212204e45e2d5d70514018be042ab524ca7b0529cc7fcc0076655b48b8b9bb283cda864736f6c63430008100033",
			"opcodes": "PUSH1 0x80 PUSH1 0x40 MSTORE PUSH3 0xF4240 PUSH1 0x0 SSTORE PUSH2 0x3E8 PUSH1 0x1 SSTORE PUSH1 0x0 PUSH1 0x2 SSTORE CALLVALUE DUP1 ISZERO PUSH2 0x22 JUMPI PUSH1 0x0 DUP1 REVERT JUMPDEST POP PUSH2 0x713 DUP1 PUSH2 0x32 PUSH1 0x0 CODECOPY PUSH1 0x0 RETURN INVALID PUSH1 0x80 PUSH1 0x40 MSTORE CALLVALUE DUP1 ISZERO PUSH2 0x10 JUMPI PUSH1 0x0 DUP1 REVERT JUMPDEST POP PUSH1 0x4 CALLDATASIZE LT PUSH2 0x7D JUMPI PUSH1 0x0 CALLDATALOAD PUSH1 0xE0 SHR DUP1 PUSH4 0x813B34A6 GT PUSH2 0x5B JUMPI DUP1 PUSH4 0x813B34A6 EQ PUSH2 0xEE JUMPI DUP1 PUSH4 0x93388920 EQ PUSH2 0x11E JUMPI DUP1 PUSH4 0xBB046249 EQ PUSH2 0x13C JUMPI DUP1 PUSH4 0xE1D5DE44 EQ PUSH2 0x158 JUMPI PUSH2 0x7D JUMP JUMPDEST DUP1 PUSH4 0x10C51C1B EQ PUSH2 0x82 JUMPI DUP1 PUSH4 0x49C15BD9 EQ PUSH2 0xB2 JUMPI DUP1 PUSH4 0x7EBC31BF EQ PUSH2 0xD0 JUMPI JUMPDEST PUSH1 0x0 DUP1 REVERT JUMPDEST PUSH2 0x9C PUSH1 0x4 DUP1 CALLDATASIZE SUB DUP2 ADD SWAP1 PUSH2 0x97 SWAP2 SWAP1 PUSH2 0x4BF JUMP JUMPDEST PUSH2 0x174 JUMP JUMPDEST PUSH1 0x40 MLOAD PUSH2 0xA9 SWAP2 SWAP1 PUSH2 0x505 JUMP JUMPDEST PUSH1 0x40 MLOAD DUP1 SWAP2 SUB SWAP1 RETURN JUMPDEST PUSH2 0xBA PUSH2 0x1BD JUMP JUMPDEST PUSH1 0x40 MLOAD PUSH2 0xC7 SWAP2 SWAP1 PUSH2 0x505 JUMP JUMPDEST PUSH1 0x40 MLOAD DUP1 SWAP2 SUB SWAP1 RETURN JUMPDEST PUSH2 0xD8 PUSH2 0x1C3 JUMP JUMPDEST PUSH1 0x40 MLOAD PUSH2 0xE5 SWAP2 SWAP1 PUSH2 0x505 JUMP JUMPDEST PUSH1 0x40 MLOAD DUP1 SWAP2 SUB SWAP1 RETURN JUMPDEST PUSH2 0x108 PUSH1 0x4 DUP1 CALLDATASIZE SUB DUP2 ADD SWAP1 PUSH2 0x103 SWAP2 SWAP1 PUSH2 0x4BF JUMP JUMPDEST PUSH2 0x1C9 JUMP JUMPDEST PUSH1 0x40 MLOAD PUSH2 0x115 SWAP2 SWAP1 PUSH2 0x505 JUMP JUMPDEST PUSH1 0x40 MLOAD DUP1 SWAP2 SUB SWAP1 RETURN JUMPDEST PUSH2 0x126 PUSH2 0x212 JUMP JUMPDEST PUSH1 0x40 MLOAD PUSH2 0x133 SWAP2 SWAP1 PUSH2 0x505 JUMP JUMPDEST PUSH1 0x40 MLOAD DUP1 SWAP2 SUB SWAP1 RETURN JUMPDEST PUSH2 0x156 PUSH1 0x4 DUP1 CALLDATASIZE SUB DUP2 ADD SWAP1 PUSH2 0x151 SWAP2 SWAP1 PUSH2 0x54C JUMP JUMPDEST PUSH2 0x218 JUMP JUMPDEST STOP JUMPDEST PUSH2 0x172 PUSH1 0x4 DUP1 CALLDATASIZE SUB DUP2 ADD SWAP1 PUSH2 0x16D SWAP2 SWAP1 PUSH2 0x54C JUMP JUMPDEST PUSH2 0x359 JUMP JUMPDEST STOP JUMPDEST PUSH1 0x0 PUSH1 0x4 PUSH1 0x0 DUP4 PUSH20 0xFFFFFFFFFFFFFFFFFFFFFFFFFFFFFFFFFFFFFFFF AND PUSH20 0xFFFFFFFFFFFFFFFFFFFFFFFFFFFFFFFFFFFFFFFF AND DUP2 MSTORE PUSH1 0x20 ADD SWAP1 DUP2 MSTORE PUSH1 0x20 ADD PUSH1 0x0 KECCAK256 SLOAD SWAP1 POP SWAP2 SWAP1 POP JUMP JUMPDEST PUSH1 0x2 SLOAD DUP2 JUMP JUMPDEST PUSH1 0x0 SLOAD DUP2 JUMP JUMPDEST PUSH1 0x0 PUSH1 0x3 PUSH1 0x0 DUP4 PUSH20 0xFFFFFFFFFFFFFFFFFFFFFFFFFFFFFFFFFFFFFFFF AND PUSH20 0xFFFFFFFFFFFFFFFFFFFFFFFFFFFFFFFFFFFFFFFF AND DUP2 MSTORE PUSH1 0x20 ADD SWAP1 DUP2 MSTORE PUSH1 0x20 ADD PUSH1 0x0 KECCAK256 SLOAD SWAP1 POP SWAP2 SWAP1 POP JUMP JUMPDEST PUSH1 0x1 SLOAD DUP2 JUMP JUMPDEST DUP1 PUSH1 0x0 SLOAD PUSH1 0x2 SLOAD PUSH1 0x1 SLOAD DUP4 PUSH2 0x22D SWAP2 SWAP1 PUSH2 0x5BB JUMP JUMPDEST PUSH2 0x237 SWAP2 SWAP1 PUSH2 0x615 JUMP JUMPDEST GT ISZERO PUSH2 0x242 JUMPI PUSH1 0x0 DUP1 REVERT JUMPDEST PUSH1 0x0 PUSH1 0x1 SLOAD DUP4 PUSH2 0x252 SWAP2 SWAP1 PUSH2 0x5BB JUMP JUMPDEST SWAP1 POP DUP1 PUSH1 0x3 PUSH1 0x0 DUP7 PUSH20 0xFFFFFFFFFFFFFFFFFFFFFFFFFFFFFFFFFFFFFFFF AND PUSH20 0xFFFFFFFFFFFFFFFFFFFFFFFFFFFFFFFFFFFFFFFF AND DUP2 MSTORE PUSH1 0x20 ADD SWAP1 DUP2 MSTORE PUSH1 0x20 ADD PUSH1 0x0 KECCAK256 PUSH1 0x0 DUP3 DUP3 SLOAD PUSH2 0x2A3 SWAP2 SWAP1 PUSH2 0x615 JUMP JUMPDEST SWAP3 POP POP DUP2 SWAP1 SSTORE POP PUSH1 0x1 SLOAD PUSH1 0x3 PUSH1 0x0 DUP7 PUSH20 0xFFFFFFFFFFFFFFFFFFFFFFFFFFFFFFFFFFFFFFFF AND PUSH20 0xFFFFFFFFFFFFFFFFFFFFFFFFFFFFFFFFFFFFFFFF AND DUP2 MSTORE PUSH1 0x20 ADD SWAP1 DUP2 MSTORE PUSH1 0x20 ADD PUSH1 0x0 KECCAK256 SLOAD PUSH2 0x2F7 SWAP2 SWAP1 PUSH2 0x678 JUMP JUMPDEST PUSH1 0x4 PUSH1 0x0 DUP7 PUSH20 0xFFFFFFFFFFFFFFFFFFFFFFFFFFFFFFFFFFFFFFFF AND PUSH20 0xFFFFFFFFFFFFFFFFFFFFFFFFFFFFFFFFFFFFFFFF AND DUP2 MSTORE PUSH1 0x20 ADD SWAP1 DUP2 MSTORE PUSH1 0x20 ADD PUSH1 0x0 KECCAK256 DUP2 SWAP1 SSTORE POP DUP1 PUSH1 0x2 PUSH1 0x0 DUP3 DUP3 SLOAD PUSH2 0x34C SWAP2 SWAP1 PUSH2 0x615 JUMP JUMPDEST SWAP3 POP POP DUP2 SWAP1 SSTORE POP POP POP POP POP JUMP JUMPDEST DUP1 PUSH1 0x3 PUSH1 0x0 DUP5 PUSH20 0xFFFFFFFFFFFFFFFFFFFFFFFFFFFFFFFFFFFFFFFF AND PUSH20 0xFFFFFFFFFFFFFFFFFFFFFFFFFFFFFFFFFFFFFFFF AND DUP2 MSTORE PUSH1 0x20 ADD SWAP1 DUP2 MSTORE PUSH1 0x20 ADD PUSH1 0x0 KECCAK256 PUSH1 0x0 DUP3 DUP3 SLOAD PUSH2 0x3A8 SWAP2 SWAP1 PUSH2 0x6A9 JUMP JUMPDEST SWAP3 POP POP DUP2 SWAP1 SSTORE POP PUSH2 0x3E8 PUSH1 0x3 PUSH1 0x0 DUP5 PUSH20 0xFFFFFFFFFFFFFFFFFFFFFFFFFFFFFFFFFFFFFFFF AND PUSH20 0xFFFFFFFFFFFFFFFFFFFFFFFFFFFFFFFFFFFFFFFF AND DUP2 MSTORE PUSH1 0x20 ADD SWAP1 DUP2 MSTORE PUSH1 0x20 ADD PUSH1 0x0 KECCAK256 SLOAD PUSH2 0x3FC SWAP2 SWAP1 PUSH2 0x678 JUMP JUMPDEST PUSH1 0x4 PUSH1 0x0 DUP5 PUSH20 0xFFFFFFFFFFFFFFFFFFFFFFFFFFFFFFFFFFFFFFFF AND PUSH20 0xFFFFFFFFFFFFFFFFFFFFFFFFFFFFFFFFFFFFFFFF AND DUP2 MSTORE PUSH1 0x20 ADD SWAP1 DUP2 MSTORE PUSH1 0x20 ADD PUSH1 0x0 KECCAK256 DUP2 SWAP1 SSTORE POP DUP1 PUSH1 0x2 PUSH1 0x0 DUP3 DUP3 SLOAD PUSH2 0x451 SWAP2 SWAP1 PUSH2 0x6A9 JUMP JUMPDEST SWAP3 POP POP DUP2 SWAP1 SSTORE POP POP POP JUMP JUMPDEST PUSH1 0x0 DUP1 REVERT JUMPDEST PUSH1 0x0 PUSH20 0xFFFFFFFFFFFFFFFFFFFFFFFFFFFFFFFFFFFFFFFF DUP3 AND SWAP1 POP SWAP2 SWAP1 POP JUMP JUMPDEST PUSH1 0x0 PUSH2 0x48C DUP3 PUSH2 0x461 JUMP JUMPDEST SWAP1 POP SWAP2 SWAP1 POP JUMP JUMPDEST PUSH2 0x49C DUP2 PUSH2 0x481 JUMP JUMPDEST DUP2 EQ PUSH2 0x4A7 JUMPI PUSH1 0x0 DUP1 REVERT JUMPDEST POP JUMP JUMPDEST PUSH1 0x0 DUP2 CALLDATALOAD SWAP1 POP PUSH2 0x4B9 DUP2 PUSH2 0x493 JUMP JUMPDEST SWAP3 SWAP2 POP POP JUMP JUMPDEST PUSH1 0x0 PUSH1 0x20 DUP3 DUP5 SUB SLT ISZERO PUSH2 0x4D5 JUMPI PUSH2 0x4D4 PUSH2 0x45C JUMP JUMPDEST JUMPDEST PUSH1 0x0 PUSH2 0x4E3 DUP5 DUP3 DUP6 ADD PUSH2 0x4AA JUMP JUMPDEST SWAP2 POP POP SWAP3 SWAP2 POP POP JUMP JUMPDEST PUSH1 0x0 DUP2 SWAP1 POP SWAP2 SWAP1 POP JUMP JUMPDEST PUSH2 0x4FF DUP2 PUSH2 0x4EC JUMP JUMPDEST DUP3 MSTORE POP POP JUMP JUMPDEST PUSH1 0x0 PUSH1 0x20 DUP3 ADD SWAP1 POP PUSH2 0x51A PUSH1 0x0 DUP4 ADD DUP5 PUSH2 0x4F6 JUMP JUMPDEST SWAP3 SWAP2 POP POP JUMP JUMPDEST PUSH2 0x529 DUP2 PUSH2 0x4EC JUMP JUMPDEST DUP2 EQ PUSH2 0x534 JUMPI PUSH1 0x0 DUP1 REVERT JUMPDEST POP JUMP JUMPDEST PUSH1 0x0 DUP2 CALLDATALOAD SWAP1 POP PUSH2 0x546 DUP2 PUSH2 0x520 JUMP JUMPDEST SWAP3 SWAP2 POP POP JUMP JUMPDEST PUSH1 0x0 DUP1 PUSH1 0x40 DUP4 DUP6 SUB SLT ISZERO PUSH2 0x563 JUMPI PUSH2 0x562 PUSH2 0x45C JUMP JUMPDEST JUMPDEST PUSH1 0x0 PUSH2 0x571 DUP6 DUP3 DUP7 ADD PUSH2 0x4AA JUMP JUMPDEST SWAP3 POP POP PUSH1 0x20 PUSH2 0x582 DUP6 DUP3 DUP7 ADD PUSH2 0x537 JUMP JUMPDEST SWAP2 POP POP SWAP3 POP SWAP3 SWAP1 POP JUMP JUMPDEST PUSH32 0x4E487B7100000000000000000000000000000000000000000000000000000000 PUSH1 0x0 MSTORE PUSH1 0x11 PUSH1 0x4 MSTORE PUSH1 0x24 PUSH1 0x0 REVERT JUMPDEST PUSH1 0x0 PUSH2 0x5C6 DUP3 PUSH2 0x4EC JUMP JUMPDEST SWAP2 POP PUSH2 0x5D1 DUP4 PUSH2 0x4EC JUMP JUMPDEST SWAP3 POP DUP2 PUSH32 0xFFFFFFFFFFFFFFFFFFFFFFFFFFFFFFFFFFFFFFFFFFFFFFFFFFFFFFFFFFFFFFFF DIV DUP4 GT DUP3 ISZERO ISZERO AND ISZERO PUSH2 0x60A JUMPI PUSH2 0x609 PUSH2 0x58C JUMP JUMPDEST JUMPDEST DUP3 DUP3 MUL SWAP1 POP SWAP3 SWAP2 POP POP JUMP JUMPDEST PUSH1 0x0 PUSH2 0x620 DUP3 PUSH2 0x4EC JUMP JUMPDEST SWAP2 POP PUSH2 0x62B DUP4 PUSH2 0x4EC JUMP JUMPDEST SWAP3 POP DUP3 DUP3 ADD SWAP1 POP DUP1 DUP3 GT ISZERO PUSH2 0x643 JUMPI PUSH2 0x642 PUSH2 0x58C JUMP JUMPDEST JUMPDEST SWAP3 SWAP2 POP POP JUMP JUMPDEST PUSH32 0x4E487B7100000000000000000000000000000000000000000000000000000000 PUSH1 0x0 MSTORE PUSH1 0x12 PUSH1 0x4 MSTORE PUSH1 0x24 PUSH1 0x0 REVERT JUMPDEST PUSH1 0x0 PUSH2 0x683 DUP3 PUSH2 0x4EC JUMP JUMPDEST SWAP2 POP PUSH2 0x68E DUP4 PUSH2 0x4EC JUMP JUMPDEST SWAP3 POP DUP3 PUSH2 0x69E JUMPI PUSH2 0x69D PUSH2 0x649 JUMP JUMPDEST JUMPDEST DUP3 DUP3 DIV SWAP1 POP SWAP3 SWAP2 POP POP JUMP JUMPDEST PUSH1 0x0 PUSH2 0x6B4 DUP3 PUSH2 0x4EC JUMP JUMPDEST SWAP2 POP PUSH2 0x6BF DUP4 PUSH2 0x4EC JUMP JUMPDEST SWAP3 POP DUP3 DUP3 SUB SWAP1 POP DUP2 DUP2 GT ISZERO PUSH2 0x6D7 JUMPI PUSH2 0x6D6 PUSH2 0x58C JUMP JUMPDEST JUMPDEST SWAP3 SWAP2 POP POP JUMP INVALID LOG2 PUSH5 0x6970667358 0x22 SLT KECCAK256 0x4E GASLIMIT 0xE2 0xD5 0xD7 SDIV EQ ADD DUP12 0xE0 TIMESTAMP 0xAB MSTORE 0x4C 0xA7 0xB0 MSTORE SWAP13 0xC7 0xFC 0xC0 SMOD PUSH7 0x55B48B8B9BB283 0xCD 0xA8 PUSH5 0x736F6C6343 STOP ADDMOD LT STOP CALLER "
		},
		"gasEstimates": {
			"creation": {
				"codeDepositCost": "362200",
				"executionCost": "49617",
				"totalCost": "411817"
			},
			"external": {
				"BuyRepublicCredit(address,uint256)": "infinite",
				"EquityinRepublicCredit(address)": "2841",
				"Purchase()": "2452",
				"SellRepublicCredit(address,uint256)": "infinite",
				"TotalRepublicCredit()": "2474",
				"USDRepublicCredit()": "2451",
				"equity_in_usd(address)": "2842"
			}
		},
		"methodIdentifiers": {
			"BuyRepublicCredit(address,uint256)": "bb046249",
			"EquityinRepublicCredit(address)": "813b34a6",
			"Purchase()": "49c15bd9",
			"SellRepublicCredit(address,uint256)": "e1d5de44",
			"TotalRepublicCredit()": "7ebc31bf",
			"USDRepublicCredit()": "93388920",
			"equity_in_usd(address)": "10c51c1b"
		}
	},
	"abi": [
		{
			"inputs": [
				{
					"internalType": "address",
					"name": "CoinHolder",
					"type": "address"
				},
				{
					"internalType": "uint256",
					"name": "USDinvested",
					"type": "uint256"
				}
			],
			"name": "BuyRepublicCredit",
			"outputs": [],
			"stateMutability": "nonpayable",
			"type": "function"
		},
		{
			"inputs": [
				{
					"internalType": "address",
					"name": "CoinHolder",
					"type": "address"
				}
			],
			"name": "EquityinRepublicCredit",
			"outputs": [
				{
					"internalType": "uint256",
					"name": "",
					"type": "uint256"
				}
			],
			"stateMutability": "view",
			"type": "function"
		},
		{
			"inputs": [],
			"name": "Purchase",
			"outputs": [
				{
					"internalType": "uint256",
					"name": "",
					"type": "uint256"
				}
			],
			"stateMutability": "view",
			"type": "function"
		},
		{
			"inputs": [
				{
					"internalType": "address",
					"name": "CoinHolder",
					"type": "address"
				},
				{
					"internalType": "uint256",
					"name": "CoinSold",
					"type": "uint256"
				}
			],
			"name": "SellRepublicCredit",
			"outputs": [],
			"stateMutability": "nonpayable",
			"type": "function"
		},
		{
			"inputs": [],
			"name": "TotalRepublicCredit",
			"outputs": [
				{
					"internalType": "uint256",
					"name": "",
					"type": "uint256"
				}
			],
			"stateMutability": "view",
			"type": "function"
		},
		{
			"inputs": [],
			"name": "USDRepublicCredit",
			"outputs": [
				{
					"internalType": "uint256",
					"name": "",
					"type": "uint256"
				}
			],
			"stateMutability": "view",
			"type": "function"
		},
		{
			"inputs": [
				{
					"internalType": "address",
					"name": "CoinHolder",
					"type": "address"
				}
			],
			"name": "equity_in_usd",
			"outputs": [
				{
					"internalType": "uint256",
					"name": "",
					"type": "uint256"
				}
			],
			"stateMutability": "view",
			"type": "function"
		}
	]
}